{
  "contracts/adventureNFT.sol": {
    "adventureNFT": {
      "abi": [
        {
          "inputs": [
            {
              "internalType": "bytes32[]",
              "name": "assetsForSale",
              "type": "bytes32[]"
            },
            {
              "internalType": "address",
              "name": "catnipAddress",
              "type": "address"
            }
          ],
          "stateMutability": "nonpayable",
          "type": "constructor"
        },
        {
          "anonymous": false,
          "inputs": [
            {
              "indexed": true,
              "internalType": "address",
              "name": "owner",
              "type": "address"
            },
            {
              "indexed": true,
              "internalType": "address",
              "name": "approved",
              "type": "address"
            },
            {
              "indexed": true,
              "internalType": "uint256",
              "name": "tokenId",
              "type": "uint256"
            }
          ],
          "name": "Approval",
          "type": "event"
        },
        {
          "anonymous": false,
          "inputs": [
            {
              "indexed": true,
              "internalType": "address",
              "name": "owner",
              "type": "address"
            },
            {
              "indexed": true,
              "internalType": "address",
              "name": "operator",
              "type": "address"
            },
            {
              "indexed": false,
              "internalType": "bool",
              "name": "approved",
              "type": "bool"
            }
          ],
          "name": "ApprovalForAll",
          "type": "event"
        },
        {
          "anonymous": false,
          "inputs": [
            {
              "indexed": true,
              "internalType": "address",
              "name": "from",
              "type": "address"
            },
            {
              "indexed": true,
              "internalType": "address",
              "name": "to",
              "type": "address"
            },
            {
              "indexed": true,
              "internalType": "uint256",
              "name": "tokenId",
              "type": "uint256"
            }
          ],
          "name": "Transfer",
          "type": "event"
        },
        {
          "inputs": [
            {
              "internalType": "address",
              "name": "to",
              "type": "address"
            },
            {
              "internalType": "uint256",
              "name": "tokenId",
              "type": "uint256"
            }
          ],
          "name": "approve",
          "outputs": [],
          "stateMutability": "nonpayable",
          "type": "function"
        },
        {
          "inputs": [
            {
              "internalType": "address",
              "name": "owner",
              "type": "address"
            }
          ],
          "name": "balanceOf",
          "outputs": [
            {
              "internalType": "uint256",
              "name": "",
              "type": "uint256"
            }
          ],
          "stateMutability": "view",
          "type": "function"
        },
        {
          "inputs": [
            {
              "internalType": "string",
              "name": "tokenURI",
              "type": "string"
            }
          ],
          "name": "createAdventureNFT",
          "outputs": [
            {
              "internalType": "uint256",
              "name": "",
              "type": "uint256"
            }
          ],
          "stateMutability": "nonpayable",
          "type": "function"
        },
        {
          "inputs": [
            {
              "internalType": "bytes32",
              "name": "",
              "type": "bytes32"
            }
          ],
          "name": "forSale",
          "outputs": [
            {
              "internalType": "bool",
              "name": "",
              "type": "bool"
            }
          ],
          "stateMutability": "view",
          "type": "function"
        },
        {
          "inputs": [
            {
              "internalType": "uint256",
              "name": "tokenId",
              "type": "uint256"
            }
          ],
          "name": "getApproved",
          "outputs": [
            {
              "internalType": "address",
              "name": "",
              "type": "address"
            }
          ],
          "stateMutability": "view",
          "type": "function"
        },
        {
          "inputs": [
            {
              "internalType": "address",
              "name": "owner",
              "type": "address"
            },
            {
              "internalType": "address",
              "name": "operator",
              "type": "address"
            }
          ],
          "name": "isApprovedForAll",
          "outputs": [
            {
              "internalType": "bool",
              "name": "",
              "type": "bool"
            }
          ],
          "stateMutability": "view",
          "type": "function"
        },
        {
          "inputs": [],
          "name": "name",
          "outputs": [
            {
              "internalType": "string",
              "name": "",
              "type": "string"
            }
          ],
          "stateMutability": "view",
          "type": "function"
        },
        {
          "inputs": [
            {
              "internalType": "uint256",
              "name": "tokenId",
              "type": "uint256"
            }
          ],
          "name": "ownerOf",
          "outputs": [
            {
              "internalType": "address",
              "name": "",
              "type": "address"
            }
          ],
          "stateMutability": "view",
          "type": "function"
        },
        {
          "inputs": [
            {
              "internalType": "address",
              "name": "",
              "type": "address"
            }
          ],
          "name": "playerAmounts",
          "outputs": [
            {
              "internalType": "uint256",
              "name": "",
              "type": "uint256"
            }
          ],
          "stateMutability": "view",
          "type": "function"
        },
        {
          "inputs": [
            {
              "internalType": "address",
              "name": "from",
              "type": "address"
            },
            {
              "internalType": "address",
              "name": "to",
              "type": "address"
            },
            {
              "internalType": "uint256",
              "name": "tokenId",
              "type": "uint256"
            }
          ],
          "name": "safeTransferFrom",
          "outputs": [],
          "stateMutability": "nonpayable",
          "type": "function"
        },
        {
          "inputs": [
            {
              "internalType": "address",
              "name": "from",
              "type": "address"
            },
            {
              "internalType": "address",
              "name": "to",
              "type": "address"
            },
            {
              "internalType": "uint256",
              "name": "tokenId",
              "type": "uint256"
            },
            {
              "internalType": "bytes",
              "name": "_data",
              "type": "bytes"
            }
          ],
          "name": "safeTransferFrom",
          "outputs": [],
          "stateMutability": "nonpayable",
          "type": "function"
        },
        {
          "inputs": [
            {
              "internalType": "address",
              "name": "operator",
              "type": "address"
            },
            {
              "internalType": "bool",
              "name": "approved",
              "type": "bool"
            }
          ],
          "name": "setApprovalForAll",
          "outputs": [],
          "stateMutability": "nonpayable",
          "type": "function"
        },
        {
          "inputs": [
            {
              "internalType": "bytes4",
              "name": "interfaceId",
              "type": "bytes4"
            }
          ],
          "name": "supportsInterface",
          "outputs": [
            {
              "internalType": "bool",
              "name": "",
              "type": "bool"
            }
          ],
          "stateMutability": "view",
          "type": "function"
        },
        {
          "inputs": [],
          "name": "symbol",
          "outputs": [
            {
              "internalType": "string",
              "name": "",
              "type": "string"
            }
          ],
          "stateMutability": "view",
          "type": "function"
        },
        {
          "inputs": [
            {
              "internalType": "uint256",
              "name": "tokenId",
              "type": "uint256"
            }
          ],
          "name": "tokenURI",
          "outputs": [
            {
              "internalType": "string",
              "name": "",
              "type": "string"
            }
          ],
          "stateMutability": "view",
          "type": "function"
        },
        {
          "inputs": [
            {
              "internalType": "address",
              "name": "from",
              "type": "address"
            },
            {
              "internalType": "address",
              "name": "to",
              "type": "address"
            },
            {
              "internalType": "uint256",
              "name": "tokenId",
              "type": "uint256"
            }
          ],
          "name": "transferFrom",
          "outputs": [],
          "stateMutability": "nonpayable",
          "type": "function"
        },
        {
          "inputs": [
            {
              "internalType": "uint256",
              "name": "amount",
              "type": "uint256"
            }
          ],
          "name": "transferTokens",
          "outputs": [
            {
              "internalType": "uint256",
              "name": "",
              "type": "uint256"
            }
          ],
          "stateMutability": "nonpayable",
          "type": "function"
        },
        {
          "inputs": [
            {
              "internalType": "bytes32",
              "name": "",
              "type": "bytes32"
            }
          ],
          "name": "uriToTokenId",
          "outputs": [
            {
              "internalType": "uint256",
              "name": "",
              "type": "uint256"
            }
          ],
          "stateMutability": "view",
          "type": "function"
        }
      ],
      "evm": {
        "bytecode": {
          "linkReferences": {},
          "object": "60806040523480156200001157600080fd5b5060405162001ecb38038062001ecb83398101604081905262000034916200023e565b604080518082018252600c81526b18591d995b9d1d5c9953919560a21b6020808301918252835180850190945260048452631053919560e21b90840152815191929162000084916000916200017b565b5080516200009a9060019060208401906200017b565b50620000a891505062000144565b50600780546001600160a01b0319166001600160a01b03831617905560005b82518110156200013b576001600a6000858481518110620000f857634e487b7160e01b600052603260045260246000fd5b6020026020010151815260200190815260200160002060006101000a81548160ff0219169083151502179055508080620001329062000354565b915050620000c7565b50505062000392565b60408051808201909152601581527f68747470733a2f2f697066732e696f2f697066732f0000000000000000000000602082015290565b828054620001899062000317565b90600052602060002090601f016020900481019282620001ad5760008555620001f8565b82601f10620001c857805160ff1916838001178555620001f8565b82800160010185558215620001f8579182015b82811115620001f8578251825591602001919060010190620001db565b50620002069291506200020a565b5090565b5b808211156200020657600081556001016200020b565b80516001600160a01b03811681146200023957600080fd5b919050565b6000806040838503121562000251578182fd5b82516001600160401b038082111562000268578384fd5b818501915085601f8301126200027c578384fd5b81516020828211156200029357620002936200037c565b80820260405182828201018181108682111715620002b557620002b56200037c565b604052838152828101945085830182870184018b1015620002d4578889fd5b8896505b84871015620002f8578051865260019690960195948301948301620002d8565b5096506200030a905087820162000221565b9450505050509250929050565b6002810460018216806200032c57607f821691505b602082108114156200034e57634e487b7160e01b600052602260045260246000fd5b50919050565b60006000198214156200037557634e487b7160e01b81526011600452602481fd5b5060010190565b634e487b7160e01b600052604160045260246000fd5b611b2980620003a26000396000f3fe608060405234801561001057600080fd5b50600436106101165760003560e01c80639d66928e116100a2578063b7416f2a11610071578063b7416f2a1461023b578063b88d4fde1461024e578063c87b56dd14610261578063e985e9c514610274578063fd9a4e611461028757610116565b80639d66928e146101ef5780639dc79f8014610202578063a22cb46514610215578063ae374b991461022857610116565b806323b872dd116100e957806323b872dd1461018e57806342842e0e146101a15780636352211e146101b457806370a08231146101c757806395d89b41146101e757610116565b806301ffc9a71461011b57806306fdde0314610144578063081812fc14610159578063095ea7b314610179575b600080fd5b61012e61012936600461131c565b61029a565b60405161013b9190611486565b60405180910390f35b61014c6102e2565b60405161013b9190611491565b61016c610167366004611304565b610374565b60405161013b9190611411565b61018c6101873660046112bf565b6103c0565b005b61018c61019c3660046111d5565b610458565b61018c6101af3660046111d5565b610490565b61016c6101c2366004611304565b6104ab565b6101da6101d5366004611189565b6104e0565b60405161013b91906119a8565b61014c610524565b6101da6101fd366004611189565b610533565b6101da610210366004611354565b610545565b61018c610223366004611289565b610615565b61012e610236366004611304565b6106e3565b6101da610249366004611304565b6106f8565b61018c61025c366004611210565b61070a565b61014c61026f366004611304565b610749565b61012e6102823660046111a3565b61086a565b6101da610295366004611304565b610898565b60006001600160e01b031982166380ac58cd60e01b14806102cb57506001600160e01b03198216635b5e139f60e01b145b806102da57506102da82610975565b90505b919050565b6060600080546102f190611a20565b80601f016020809104026020016040519081016040528092919081815260200182805461031d90611a20565b801561036a5780601f1061033f5761010080835404028352916020019161036a565b820191906000526020600020905b81548152906001019060200180831161034d57829003601f168201915b5050505050905090565b600061037f8261098e565b6103a45760405162461bcd60e51b815260040161039b906117e3565b60405180910390fd5b506000908152600460205260409020546001600160a01b031690565b60006103cb826104ab565b9050806001600160a01b0316836001600160a01b031614156103ff5760405162461bcd60e51b815260040161039b906118ed565b806001600160a01b03166104116109ab565b6001600160a01b0316148061042d575061042d816102826109ab565b6104495760405162461bcd60e51b815260040161039b9061161f565b61045383836109af565b505050565b6104696104636109ab565b82610a1d565b6104855760405162461bcd60e51b815260040161039b9061192e565b610453838383610a9a565b6104538383836040518060200160405280600081525061070a565b6000818152600260205260408120546001600160a01b0316806102da5760405162461bcd60e51b815260040161039b906116c6565b60006001600160a01b0382166105085760405162461bcd60e51b815260040161039b9061167c565b506001600160a01b031660009081526003602052604090205490565b6060600180546102f190611a20565b60096020526000908152604090205481565b6000808260405160200161055991906113c6565b60408051601f1981840301815291815281516020928301206000818152600a90935291205490915060ff166105a05760405162461bcd60e51b815260040161039b9061182f565b3360009081526009602052604090205461271011156105d15760405162461bcd60e51b815260040161039b906114f6565b6105db6008610bc7565b60006105e76008610bd0565b90506105f33382610bd4565b6105fd8185610bf2565b6000918252600b602052604090912081905592915050565b61061d6109ab565b6001600160a01b0316826001600160a01b0316141561064e5760405162461bcd60e51b815260040161039b9061159c565b806005600061065b6109ab565b6001600160a01b03908116825260208083019390935260409182016000908120918716808252919093529120805460ff19169215159290921790915561069f6109ab565b6001600160a01b03167f17307eab39ab6107e8899845ad3d59bd9653f200f220920489ca2b5937696c31836040516106d79190611486565b60405180910390a35050565b600a6020526000908152604090205460ff1681565b600b6020526000908152604090205481565b61071b6107156109ab565b83610a1d565b6107375760405162461bcd60e51b815260040161039b9061192e565b61074384848484610c36565b50505050565b60606107548261098e565b6107705760405162461bcd60e51b815260040161039b90611792565b6000828152600660205260408120805461078990611a20565b80601f01602080910402602001604051908101604052809291908181526020018280546107b590611a20565b80156108025780601f106107d757610100808354040283529160200191610802565b820191906000526020600020905b8154815290600101906020018083116107e557829003601f168201915b505050505090506000610813610c69565b9050805160001415610827575090506102dd565b8151156108595780826040516020016108419291906113e2565b604051602081830303815290604052925050506102dd565b61086284610c98565b949350505050565b6001600160a01b03918216600090815260056020908152604080832093909416825291909152205460ff1690565b6007546040516323b872dd60e01b81526000916001600160a01b0316906323b872dd906108cd90339030908790600401611425565b602060405180830381600087803b1580156108e757600080fd5b505af11580156108fb573d6000803e3d6000fd5b505050506040513d601f19601f8201168201806040525081019061091f91906112e8565b61093b5760405162461bcd60e51b815260040161039b9061197f565b336000908152600960205260408120805484929061095a9084906119b1565b90915550503360009081526009602052604090205492915050565b6001600160e01b031981166301ffc9a760e01b14919050565b6000908152600260205260409020546001600160a01b0316151590565b3390565b600081815260046020526040902080546001600160a01b0319166001600160a01b03841690811790915581906109e4826104ab565b6001600160a01b03167f8c5be1e5ebec7d5bd14f71427d1e84f3dd0314c0f7b2291e5b200ac8c7c3b92560405160405180910390a45050565b6000610a288261098e565b610a445760405162461bcd60e51b815260040161039b906115d3565b6000610a4f836104ab565b9050806001600160a01b0316846001600160a01b03161480610a8a5750836001600160a01b0316610a7f84610374565b6001600160a01b0316145b806108625750610862818561086a565b826001600160a01b0316610aad826104ab565b6001600160a01b031614610ad35760405162461bcd60e51b815260040161039b90611855565b6001600160a01b038216610af95760405162461bcd60e51b815260040161039b90611558565b610b04838383610453565b610b0f6000826109af565b6001600160a01b0383166000908152600360205260408120805460019290610b389084906119dd565b90915550506001600160a01b0382166000908152600360205260408120805460019290610b669084906119b1565b909155505060008181526002602052604080822080546001600160a01b0319166001600160a01b0386811691821790925591518493918716917fddf252ad1be2c89b69c2b068fc378daa952ba7f163c4a11628f55a4df523b3ef91a4505050565b80546001019055565b5490565b610bee828260405180602001604052806000815250610d1b565b5050565b610bfb8261098e565b610c175760405162461bcd60e51b815260040161039b9061170f565b6000828152600660209081526040909120825161045392840190611069565b610c41848484610a9a565b610c4d84848484610d4e565b6107435760405162461bcd60e51b815260040161039b906114a4565b60408051808201909152601581527468747470733a2f2f697066732e696f2f697066732f60581b602082015290565b6060610ca38261098e565b610cbf5760405162461bcd60e51b815260040161039b9061189e565b6000610cc9610c69565b90506000815111610ce95760405180602001604052806000815250610d14565b80610cf384610e69565b604051602001610d049291906113e2565b6040516020818303038152906040525b9392505050565b610d258383610f84565b610d326000848484610d4e565b6104535760405162461bcd60e51b815260040161039b906114a4565b6000610d62846001600160a01b0316611063565b15610e5e57836001600160a01b031663150b7a02610d7e6109ab565b8786866040518563ffffffff1660e01b8152600401610da09493929190611449565b602060405180830381600087803b158015610dba57600080fd5b505af1925050508015610dea575060408051601f3d908101601f19168201909252610de791810190611338565b60015b610e44573d808015610e18576040519150601f19603f3d011682016040523d82523d6000602084013e610e1d565b606091505b508051610e3c5760405162461bcd60e51b815260040161039b906114a4565b805181602001fd5b6001600160e01b031916630a85bd0160e11b149050610862565b506001949350505050565b606081610e8e57506040805180820190915260018152600360fc1b60208201526102dd565b8160005b8115610eb85780610ea281611a5b565b9150610eb19050600a836119c9565b9150610e92565b60008167ffffffffffffffff811115610ee157634e487b7160e01b600052604160045260246000fd5b6040519080825280601f01601f191660200182016040528015610f0b576020820181803683370190505b5090505b841561086257610f206001836119dd565b9150610f2d600a86611a76565b610f389060306119b1565b60f81b818381518110610f5b57634e487b7160e01b600052603260045260246000fd5b60200101906001600160f81b031916908160001a905350610f7d600a866119c9565b9450610f0f565b6001600160a01b038216610faa5760405162461bcd60e51b815260040161039b9061175d565b610fb38161098e565b15610fd05760405162461bcd60e51b815260040161039b90611521565b610fdc60008383610453565b6001600160a01b03821660009081526003602052604081208054600192906110059084906119b1565b909155505060008181526002602052604080822080546001600160a01b0319166001600160a01b03861690811790915590518392907fddf252ad1be2c89b69c2b068fc378daa952ba7f163c4a11628f55a4df523b3ef908290a45050565b3b151590565b82805461107590611a20565b90600052602060002090601f01602090048101928261109757600085556110dd565b82601f106110b057805160ff19168380011785556110dd565b828001600101855582156110dd579182015b828111156110dd5782518255916020019190600101906110c2565b506110e99291506110ed565b5090565b5b808211156110e957600081556001016110ee565b600067ffffffffffffffff8084111561111d5761111d611ab6565b604051601f8501601f19168101602001828111828210171561114157611141611ab6565b60405284815291508183850186101561115957600080fd5b8484602083013760006020868301015250509392505050565b80356001600160a01b03811681146102dd57600080fd5b60006020828403121561119a578081fd5b610d1482611172565b600080604083850312156111b5578081fd5b6111be83611172565b91506111cc60208401611172565b90509250929050565b6000806000606084860312156111e9578081fd5b6111f284611172565b925061120060208501611172565b9150604084013590509250925092565b60008060008060808587031215611225578081fd5b61122e85611172565b935061123c60208601611172565b925060408501359150606085013567ffffffffffffffff81111561125e578182fd5b8501601f8101871361126e578182fd5b61127d87823560208401611102565b91505092959194509250565b6000806040838503121561129b578182fd5b6112a483611172565b915060208301356112b481611acc565b809150509250929050565b600080604083850312156112d1578182fd5b6112da83611172565b946020939093013593505050565b6000602082840312156112f9578081fd5b8151610d1481611acc565b600060208284031215611315578081fd5b5035919050565b60006020828403121561132d578081fd5b8135610d1481611add565b600060208284031215611349578081fd5b8151610d1481611add565b600060208284031215611365578081fd5b813567ffffffffffffffff81111561137b578182fd5b8201601f8101841361138b578182fd5b61086284823560208401611102565b600081518084526113b28160208601602086016119f4565b601f01601f19169290920160200192915050565b600082516113d88184602087016119f4565b9190910192915050565b600083516113f48184602088016119f4565b8351908301906114088183602088016119f4565b01949350505050565b6001600160a01b0391909116815260200190565b6001600160a01b039384168152919092166020820152604081019190915260600190565b6001600160a01b038581168252841660208201526040810183905260806060820181905260009061147c9083018461139a565b9695505050505050565b901515815260200190565b600060208252610d14602083018461139a565b60208082526032908201527f4552433732313a207472616e7366657220746f206e6f6e20455243373231526560408201527131b2b4bb32b91034b6b83632b6b2b73a32b960711b606082015260800190565b602080825260119082015270494e414445515541544520544f4b454e5360781b604082015260600190565b6020808252601c908201527f4552433732313a20746f6b656e20616c7265616479206d696e74656400000000604082015260600190565b60208082526024908201527f4552433732313a207472616e7366657220746f20746865207a65726f206164646040820152637265737360e01b606082015260800190565b60208082526019908201527f4552433732313a20617070726f766520746f2063616c6c657200000000000000604082015260600190565b6020808252602c908201527f4552433732313a206f70657261746f7220717565727920666f72206e6f6e657860408201526b34b9ba32b73a103a37b5b2b760a11b606082015260800190565b60208082526038908201527f4552433732313a20617070726f76652063616c6c6572206973206e6f74206f7760408201527f6e6572206e6f7220617070726f76656420666f7220616c6c0000000000000000606082015260800190565b6020808252602a908201527f4552433732313a2062616c616e636520717565727920666f7220746865207a65604082015269726f206164647265737360b01b606082015260800190565b60208082526029908201527f4552433732313a206f776e657220717565727920666f72206e6f6e657869737460408201526832b73a103a37b5b2b760b91b606082015260800190565b6020808252602e908201527f45524337323155524953746f726167653a2055524920736574206f66206e6f6e60408201526d32bc34b9ba32b73a103a37b5b2b760911b606082015260800190565b6020808252818101527f4552433732313a206d696e7420746f20746865207a65726f2061646472657373604082015260600190565b60208082526031908201527f45524337323155524953746f726167653a2055524920717565727920666f72206040820152703737b732bc34b9ba32b73a103a37b5b2b760791b606082015260800190565b6020808252602c908201527f4552433732313a20617070726f76656420717565727920666f72206e6f6e657860408201526b34b9ba32b73a103a37b5b2b760a11b606082015260800190565b6020808252600c908201526b4e4f5420464f522053414c4560a01b604082015260600190565b60208082526029908201527f4552433732313a207472616e73666572206f6620746f6b656e2074686174206960408201526839903737ba1037bbb760b91b606082015260800190565b6020808252602f908201527f4552433732314d657461646174613a2055524920717565727920666f72206e6f60408201526e3732bc34b9ba32b73a103a37b5b2b760891b606082015260800190565b60208082526021908201527f4552433732313a20617070726f76616c20746f2063757272656e74206f776e656040820152603960f91b606082015260800190565b60208082526031908201527f4552433732313a207472616e736665722063616c6c6572206973206e6f74206f6040820152701ddb995c881b9bdc88185c1c1c9bdd9959607a1b606082015260800190565b6020808252600f908201526e1514905394d1915488119052531151608a1b604082015260600190565b90815260200190565b600082198211156119c4576119c4611a8a565b500190565b6000826119d8576119d8611aa0565b500490565b6000828210156119ef576119ef611a8a565b500390565b60005b83811015611a0f5781810151838201526020016119f7565b838111156107435750506000910152565b600281046001821680611a3457607f821691505b60208210811415611a5557634e487b7160e01b600052602260045260246000fd5b50919050565b6000600019821415611a6f57611a6f611a8a565b5060010190565b600082611a8557611a85611aa0565b500690565b634e487b7160e01b600052601160045260246000fd5b634e487b7160e01b600052601260045260246000fd5b634e487b7160e01b600052604160045260246000fd5b8015158114611ada57600080fd5b50565b6001600160e01b031981168114611ada57600080fdfea26469706673582212203238540b9ea4a62149678f882c3d513c3c97e454f938750c23d3eb92dd0d252064736f6c63430008000033",
          "opcodes": "PUSH1 0x80 PUSH1 0x40 MSTORE CALLVALUE DUP1 ISZERO PUSH3 0x11 JUMPI PUSH1 0x0 DUP1 REVERT JUMPDEST POP PUSH1 0x40 MLOAD PUSH3 0x1ECB CODESIZE SUB DUP1 PUSH3 0x1ECB DUP4 CODECOPY DUP2 ADD PUSH1 0x40 DUP2 SWAP1 MSTORE PUSH3 0x34 SWAP2 PUSH3 0x23E JUMP JUMPDEST PUSH1 0x40 DUP1 MLOAD DUP1 DUP3 ADD DUP3 MSTORE PUSH1 0xC DUP2 MSTORE PUSH12 0x18591D995B9D1D5C99539195 PUSH1 0xA2 SHL PUSH1 0x20 DUP1 DUP4 ADD SWAP2 DUP3 MSTORE DUP4 MLOAD DUP1 DUP6 ADD SWAP1 SWAP5 MSTORE PUSH1 0x4 DUP5 MSTORE PUSH4 0x10539195 PUSH1 0xE2 SHL SWAP1 DUP5 ADD MSTORE DUP2 MLOAD SWAP2 SWAP3 SWAP2 PUSH3 0x84 SWAP2 PUSH1 0x0 SWAP2 PUSH3 0x17B JUMP JUMPDEST POP DUP1 MLOAD PUSH3 0x9A SWAP1 PUSH1 0x1 SWAP1 PUSH1 0x20 DUP5 ADD SWAP1 PUSH3 0x17B JUMP JUMPDEST POP PUSH3 0xA8 SWAP2 POP POP PUSH3 0x144 JUMP JUMPDEST POP PUSH1 0x7 DUP1 SLOAD PUSH1 0x1 PUSH1 0x1 PUSH1 0xA0 SHL SUB NOT AND PUSH1 0x1 PUSH1 0x1 PUSH1 0xA0 SHL SUB DUP4 AND OR SWAP1 SSTORE PUSH1 0x0 JUMPDEST DUP3 MLOAD DUP2 LT ISZERO PUSH3 0x13B JUMPI PUSH1 0x1 PUSH1 0xA PUSH1 0x0 DUP6 DUP5 DUP2 MLOAD DUP2 LT PUSH3 0xF8 JUMPI PUSH4 0x4E487B71 PUSH1 0xE0 SHL PUSH1 0x0 MSTORE PUSH1 0x32 PUSH1 0x4 MSTORE PUSH1 0x24 PUSH1 0x0 REVERT JUMPDEST PUSH1 0x20 MUL PUSH1 0x20 ADD ADD MLOAD DUP2 MSTORE PUSH1 0x20 ADD SWAP1 DUP2 MSTORE PUSH1 0x20 ADD PUSH1 0x0 KECCAK256 PUSH1 0x0 PUSH2 0x100 EXP DUP2 SLOAD DUP2 PUSH1 0xFF MUL NOT AND SWAP1 DUP4 ISZERO ISZERO MUL OR SWAP1 SSTORE POP DUP1 DUP1 PUSH3 0x132 SWAP1 PUSH3 0x354 JUMP JUMPDEST SWAP2 POP POP PUSH3 0xC7 JUMP JUMPDEST POP POP POP PUSH3 0x392 JUMP JUMPDEST PUSH1 0x40 DUP1 MLOAD DUP1 DUP3 ADD SWAP1 SWAP2 MSTORE PUSH1 0x15 DUP2 MSTORE PUSH32 0x68747470733A2F2F697066732E696F2F697066732F0000000000000000000000 PUSH1 0x20 DUP3 ADD MSTORE SWAP1 JUMP JUMPDEST DUP3 DUP1 SLOAD PUSH3 0x189 SWAP1 PUSH3 0x317 JUMP JUMPDEST SWAP1 PUSH1 0x0 MSTORE PUSH1 0x20 PUSH1 0x0 KECCAK256 SWAP1 PUSH1 0x1F ADD PUSH1 0x20 SWAP1 DIV DUP2 ADD SWAP3 DUP3 PUSH3 0x1AD JUMPI PUSH1 0x0 DUP6 SSTORE PUSH3 0x1F8 JUMP JUMPDEST DUP3 PUSH1 0x1F LT PUSH3 0x1C8 JUMPI DUP1 MLOAD PUSH1 0xFF NOT AND DUP4 DUP1 ADD OR DUP6 SSTORE PUSH3 0x1F8 JUMP JUMPDEST DUP3 DUP1 ADD PUSH1 0x1 ADD DUP6 SSTORE DUP3 ISZERO PUSH3 0x1F8 JUMPI SWAP2 DUP3 ADD JUMPDEST DUP3 DUP2 GT ISZERO PUSH3 0x1F8 JUMPI DUP3 MLOAD DUP3 SSTORE SWAP2 PUSH1 0x20 ADD SWAP2 SWAP1 PUSH1 0x1 ADD SWAP1 PUSH3 0x1DB JUMP JUMPDEST POP PUSH3 0x206 SWAP3 SWAP2 POP PUSH3 0x20A JUMP JUMPDEST POP SWAP1 JUMP JUMPDEST JUMPDEST DUP1 DUP3 GT ISZERO PUSH3 0x206 JUMPI PUSH1 0x0 DUP2 SSTORE PUSH1 0x1 ADD PUSH3 0x20B JUMP JUMPDEST DUP1 MLOAD PUSH1 0x1 PUSH1 0x1 PUSH1 0xA0 SHL SUB DUP2 AND DUP2 EQ PUSH3 0x239 JUMPI PUSH1 0x0 DUP1 REVERT JUMPDEST SWAP2 SWAP1 POP JUMP JUMPDEST PUSH1 0x0 DUP1 PUSH1 0x40 DUP4 DUP6 SUB SLT ISZERO PUSH3 0x251 JUMPI DUP2 DUP3 REVERT JUMPDEST DUP3 MLOAD PUSH1 0x1 PUSH1 0x1 PUSH1 0x40 SHL SUB DUP1 DUP3 GT ISZERO PUSH3 0x268 JUMPI DUP4 DUP5 REVERT JUMPDEST DUP2 DUP6 ADD SWAP2 POP DUP6 PUSH1 0x1F DUP4 ADD SLT PUSH3 0x27C JUMPI DUP4 DUP5 REVERT JUMPDEST DUP2 MLOAD PUSH1 0x20 DUP3 DUP3 GT ISZERO PUSH3 0x293 JUMPI PUSH3 0x293 PUSH3 0x37C JUMP JUMPDEST DUP1 DUP3 MUL PUSH1 0x40 MLOAD DUP3 DUP3 DUP3 ADD ADD DUP2 DUP2 LT DUP7 DUP3 GT OR ISZERO PUSH3 0x2B5 JUMPI PUSH3 0x2B5 PUSH3 0x37C JUMP JUMPDEST PUSH1 0x40 MSTORE DUP4 DUP2 MSTORE DUP3 DUP2 ADD SWAP5 POP DUP6 DUP4 ADD DUP3 DUP8 ADD DUP5 ADD DUP12 LT ISZERO PUSH3 0x2D4 JUMPI DUP9 DUP10 REVERT JUMPDEST DUP9 SWAP7 POP JUMPDEST DUP5 DUP8 LT ISZERO PUSH3 0x2F8 JUMPI DUP1 MLOAD DUP7 MSTORE PUSH1 0x1 SWAP7 SWAP1 SWAP7 ADD SWAP6 SWAP5 DUP4 ADD SWAP5 DUP4 ADD PUSH3 0x2D8 JUMP JUMPDEST POP SWAP7 POP PUSH3 0x30A SWAP1 POP DUP8 DUP3 ADD PUSH3 0x221 JUMP JUMPDEST SWAP5 POP POP POP POP POP SWAP3 POP SWAP3 SWAP1 POP JUMP JUMPDEST PUSH1 0x2 DUP2 DIV PUSH1 0x1 DUP3 AND DUP1 PUSH3 0x32C JUMPI PUSH1 0x7F DUP3 AND SWAP2 POP JUMPDEST PUSH1 0x20 DUP3 LT DUP2 EQ ISZERO PUSH3 0x34E JUMPI PUSH4 0x4E487B71 PUSH1 0xE0 SHL PUSH1 0x0 MSTORE PUSH1 0x22 PUSH1 0x4 MSTORE PUSH1 0x24 PUSH1 0x0 REVERT JUMPDEST POP SWAP2 SWAP1 POP JUMP JUMPDEST PUSH1 0x0 PUSH1 0x0 NOT DUP3 EQ ISZERO PUSH3 0x375 JUMPI PUSH4 0x4E487B71 PUSH1 0xE0 SHL DUP2 MSTORE PUSH1 0x11 PUSH1 0x4 MSTORE PUSH1 0x24 DUP2 REVERT JUMPDEST POP PUSH1 0x1 ADD SWAP1 JUMP JUMPDEST PUSH4 0x4E487B71 PUSH1 0xE0 SHL PUSH1 0x0 MSTORE PUSH1 0x41 PUSH1 0x4 MSTORE PUSH1 0x24 PUSH1 0x0 REVERT JUMPDEST PUSH2 0x1B29 DUP1 PUSH3 0x3A2 PUSH1 0x0 CODECOPY PUSH1 0x0 RETURN INVALID PUSH1 0x80 PUSH1 0x40 MSTORE CALLVALUE DUP1 ISZERO PUSH2 0x10 JUMPI PUSH1 0x0 DUP1 REVERT JUMPDEST POP PUSH1 0x4 CALLDATASIZE LT PUSH2 0x116 JUMPI PUSH1 0x0 CALLDATALOAD PUSH1 0xE0 SHR DUP1 PUSH4 0x9D66928E GT PUSH2 0xA2 JUMPI DUP1 PUSH4 0xB7416F2A GT PUSH2 0x71 JUMPI DUP1 PUSH4 0xB7416F2A EQ PUSH2 0x23B JUMPI DUP1 PUSH4 0xB88D4FDE EQ PUSH2 0x24E JUMPI DUP1 PUSH4 0xC87B56DD EQ PUSH2 0x261 JUMPI DUP1 PUSH4 0xE985E9C5 EQ PUSH2 0x274 JUMPI DUP1 PUSH4 0xFD9A4E61 EQ PUSH2 0x287 JUMPI PUSH2 0x116 JUMP JUMPDEST DUP1 PUSH4 0x9D66928E EQ PUSH2 0x1EF JUMPI DUP1 PUSH4 0x9DC79F80 EQ PUSH2 0x202 JUMPI DUP1 PUSH4 0xA22CB465 EQ PUSH2 0x215 JUMPI DUP1 PUSH4 0xAE374B99 EQ PUSH2 0x228 JUMPI PUSH2 0x116 JUMP JUMPDEST DUP1 PUSH4 0x23B872DD GT PUSH2 0xE9 JUMPI DUP1 PUSH4 0x23B872DD EQ PUSH2 0x18E JUMPI DUP1 PUSH4 0x42842E0E EQ PUSH2 0x1A1 JUMPI DUP1 PUSH4 0x6352211E EQ PUSH2 0x1B4 JUMPI DUP1 PUSH4 0x70A08231 EQ PUSH2 0x1C7 JUMPI DUP1 PUSH4 0x95D89B41 EQ PUSH2 0x1E7 JUMPI PUSH2 0x116 JUMP JUMPDEST DUP1 PUSH4 0x1FFC9A7 EQ PUSH2 0x11B JUMPI DUP1 PUSH4 0x6FDDE03 EQ PUSH2 0x144 JUMPI DUP1 PUSH4 0x81812FC EQ PUSH2 0x159 JUMPI DUP1 PUSH4 0x95EA7B3 EQ PUSH2 0x179 JUMPI JUMPDEST PUSH1 0x0 DUP1 REVERT JUMPDEST PUSH2 0x12E PUSH2 0x129 CALLDATASIZE PUSH1 0x4 PUSH2 0x131C JUMP JUMPDEST PUSH2 0x29A JUMP JUMPDEST PUSH1 0x40 MLOAD PUSH2 0x13B SWAP2 SWAP1 PUSH2 0x1486 JUMP JUMPDEST PUSH1 0x40 MLOAD DUP1 SWAP2 SUB SWAP1 RETURN JUMPDEST PUSH2 0x14C PUSH2 0x2E2 JUMP JUMPDEST PUSH1 0x40 MLOAD PUSH2 0x13B SWAP2 SWAP1 PUSH2 0x1491 JUMP JUMPDEST PUSH2 0x16C PUSH2 0x167 CALLDATASIZE PUSH1 0x4 PUSH2 0x1304 JUMP JUMPDEST PUSH2 0x374 JUMP JUMPDEST PUSH1 0x40 MLOAD PUSH2 0x13B SWAP2 SWAP1 PUSH2 0x1411 JUMP JUMPDEST PUSH2 0x18C PUSH2 0x187 CALLDATASIZE PUSH1 0x4 PUSH2 0x12BF JUMP JUMPDEST PUSH2 0x3C0 JUMP JUMPDEST STOP JUMPDEST PUSH2 0x18C PUSH2 0x19C CALLDATASIZE PUSH1 0x4 PUSH2 0x11D5 JUMP JUMPDEST PUSH2 0x458 JUMP JUMPDEST PUSH2 0x18C PUSH2 0x1AF CALLDATASIZE PUSH1 0x4 PUSH2 0x11D5 JUMP JUMPDEST PUSH2 0x490 JUMP JUMPDEST PUSH2 0x16C PUSH2 0x1C2 CALLDATASIZE PUSH1 0x4 PUSH2 0x1304 JUMP JUMPDEST PUSH2 0x4AB JUMP JUMPDEST PUSH2 0x1DA PUSH2 0x1D5 CALLDATASIZE PUSH1 0x4 PUSH2 0x1189 JUMP JUMPDEST PUSH2 0x4E0 JUMP JUMPDEST PUSH1 0x40 MLOAD PUSH2 0x13B SWAP2 SWAP1 PUSH2 0x19A8 JUMP JUMPDEST PUSH2 0x14C PUSH2 0x524 JUMP JUMPDEST PUSH2 0x1DA PUSH2 0x1FD CALLDATASIZE PUSH1 0x4 PUSH2 0x1189 JUMP JUMPDEST PUSH2 0x533 JUMP JUMPDEST PUSH2 0x1DA PUSH2 0x210 CALLDATASIZE PUSH1 0x4 PUSH2 0x1354 JUMP JUMPDEST PUSH2 0x545 JUMP JUMPDEST PUSH2 0x18C PUSH2 0x223 CALLDATASIZE PUSH1 0x4 PUSH2 0x1289 JUMP JUMPDEST PUSH2 0x615 JUMP JUMPDEST PUSH2 0x12E PUSH2 0x236 CALLDATASIZE PUSH1 0x4 PUSH2 0x1304 JUMP JUMPDEST PUSH2 0x6E3 JUMP JUMPDEST PUSH2 0x1DA PUSH2 0x249 CALLDATASIZE PUSH1 0x4 PUSH2 0x1304 JUMP JUMPDEST PUSH2 0x6F8 JUMP JUMPDEST PUSH2 0x18C PUSH2 0x25C CALLDATASIZE PUSH1 0x4 PUSH2 0x1210 JUMP JUMPDEST PUSH2 0x70A JUMP JUMPDEST PUSH2 0x14C PUSH2 0x26F CALLDATASIZE PUSH1 0x4 PUSH2 0x1304 JUMP JUMPDEST PUSH2 0x749 JUMP JUMPDEST PUSH2 0x12E PUSH2 0x282 CALLDATASIZE PUSH1 0x4 PUSH2 0x11A3 JUMP JUMPDEST PUSH2 0x86A JUMP JUMPDEST PUSH2 0x1DA PUSH2 0x295 CALLDATASIZE PUSH1 0x4 PUSH2 0x1304 JUMP JUMPDEST PUSH2 0x898 JUMP JUMPDEST PUSH1 0x0 PUSH1 0x1 PUSH1 0x1 PUSH1 0xE0 SHL SUB NOT DUP3 AND PUSH4 0x80AC58CD PUSH1 0xE0 SHL EQ DUP1 PUSH2 0x2CB JUMPI POP PUSH1 0x1 PUSH1 0x1 PUSH1 0xE0 SHL SUB NOT DUP3 AND PUSH4 0x5B5E139F PUSH1 0xE0 SHL EQ JUMPDEST DUP1 PUSH2 0x2DA JUMPI POP PUSH2 0x2DA DUP3 PUSH2 0x975 JUMP JUMPDEST SWAP1 POP JUMPDEST SWAP2 SWAP1 POP JUMP JUMPDEST PUSH1 0x60 PUSH1 0x0 DUP1 SLOAD PUSH2 0x2F1 SWAP1 PUSH2 0x1A20 JUMP JUMPDEST DUP1 PUSH1 0x1F ADD PUSH1 0x20 DUP1 SWAP2 DIV MUL PUSH1 0x20 ADD PUSH1 0x40 MLOAD SWAP1 DUP2 ADD PUSH1 0x40 MSTORE DUP1 SWAP3 SWAP2 SWAP1 DUP2 DUP2 MSTORE PUSH1 0x20 ADD DUP3 DUP1 SLOAD PUSH2 0x31D SWAP1 PUSH2 0x1A20 JUMP JUMPDEST DUP1 ISZERO PUSH2 0x36A JUMPI DUP1 PUSH1 0x1F LT PUSH2 0x33F JUMPI PUSH2 0x100 DUP1 DUP4 SLOAD DIV MUL DUP4 MSTORE SWAP2 PUSH1 0x20 ADD SWAP2 PUSH2 0x36A JUMP JUMPDEST DUP3 ADD SWAP2 SWAP1 PUSH1 0x0 MSTORE PUSH1 0x20 PUSH1 0x0 KECCAK256 SWAP1 JUMPDEST DUP2 SLOAD DUP2 MSTORE SWAP1 PUSH1 0x1 ADD SWAP1 PUSH1 0x20 ADD DUP1 DUP4 GT PUSH2 0x34D JUMPI DUP3 SWAP1 SUB PUSH1 0x1F AND DUP3 ADD SWAP2 JUMPDEST POP POP POP POP POP SWAP1 POP SWAP1 JUMP JUMPDEST PUSH1 0x0 PUSH2 0x37F DUP3 PUSH2 0x98E JUMP JUMPDEST PUSH2 0x3A4 JUMPI PUSH1 0x40 MLOAD PUSH3 0x461BCD PUSH1 0xE5 SHL DUP2 MSTORE PUSH1 0x4 ADD PUSH2 0x39B SWAP1 PUSH2 0x17E3 JUMP JUMPDEST PUSH1 0x40 MLOAD DUP1 SWAP2 SUB SWAP1 REVERT JUMPDEST POP PUSH1 0x0 SWAP1 DUP2 MSTORE PUSH1 0x4 PUSH1 0x20 MSTORE PUSH1 0x40 SWAP1 KECCAK256 SLOAD PUSH1 0x1 PUSH1 0x1 PUSH1 0xA0 SHL SUB AND SWAP1 JUMP JUMPDEST PUSH1 0x0 PUSH2 0x3CB DUP3 PUSH2 0x4AB JUMP JUMPDEST SWAP1 POP DUP1 PUSH1 0x1 PUSH1 0x1 PUSH1 0xA0 SHL SUB AND DUP4 PUSH1 0x1 PUSH1 0x1 PUSH1 0xA0 SHL SUB AND EQ ISZERO PUSH2 0x3FF JUMPI PUSH1 0x40 MLOAD PUSH3 0x461BCD PUSH1 0xE5 SHL DUP2 MSTORE PUSH1 0x4 ADD PUSH2 0x39B SWAP1 PUSH2 0x18ED JUMP JUMPDEST DUP1 PUSH1 0x1 PUSH1 0x1 PUSH1 0xA0 SHL SUB AND PUSH2 0x411 PUSH2 0x9AB JUMP JUMPDEST PUSH1 0x1 PUSH1 0x1 PUSH1 0xA0 SHL SUB AND EQ DUP1 PUSH2 0x42D JUMPI POP PUSH2 0x42D DUP2 PUSH2 0x282 PUSH2 0x9AB JUMP JUMPDEST PUSH2 0x449 JUMPI PUSH1 0x40 MLOAD PUSH3 0x461BCD PUSH1 0xE5 SHL DUP2 MSTORE PUSH1 0x4 ADD PUSH2 0x39B SWAP1 PUSH2 0x161F JUMP JUMPDEST PUSH2 0x453 DUP4 DUP4 PUSH2 0x9AF JUMP JUMPDEST POP POP POP JUMP JUMPDEST PUSH2 0x469 PUSH2 0x463 PUSH2 0x9AB JUMP JUMPDEST DUP3 PUSH2 0xA1D JUMP JUMPDEST PUSH2 0x485 JUMPI PUSH1 0x40 MLOAD PUSH3 0x461BCD PUSH1 0xE5 SHL DUP2 MSTORE PUSH1 0x4 ADD PUSH2 0x39B SWAP1 PUSH2 0x192E JUMP JUMPDEST PUSH2 0x453 DUP4 DUP4 DUP4 PUSH2 0xA9A JUMP JUMPDEST PUSH2 0x453 DUP4 DUP4 DUP4 PUSH1 0x40 MLOAD DUP1 PUSH1 0x20 ADD PUSH1 0x40 MSTORE DUP1 PUSH1 0x0 DUP2 MSTORE POP PUSH2 0x70A JUMP JUMPDEST PUSH1 0x0 DUP2 DUP2 MSTORE PUSH1 0x2 PUSH1 0x20 MSTORE PUSH1 0x40 DUP2 KECCAK256 SLOAD PUSH1 0x1 PUSH1 0x1 PUSH1 0xA0 SHL SUB AND DUP1 PUSH2 0x2DA JUMPI PUSH1 0x40 MLOAD PUSH3 0x461BCD PUSH1 0xE5 SHL DUP2 MSTORE PUSH1 0x4 ADD PUSH2 0x39B SWAP1 PUSH2 0x16C6 JUMP JUMPDEST PUSH1 0x0 PUSH1 0x1 PUSH1 0x1 PUSH1 0xA0 SHL SUB DUP3 AND PUSH2 0x508 JUMPI PUSH1 0x40 MLOAD PUSH3 0x461BCD PUSH1 0xE5 SHL DUP2 MSTORE PUSH1 0x4 ADD PUSH2 0x39B SWAP1 PUSH2 0x167C JUMP JUMPDEST POP PUSH1 0x1 PUSH1 0x1 PUSH1 0xA0 SHL SUB AND PUSH1 0x0 SWAP1 DUP2 MSTORE PUSH1 0x3 PUSH1 0x20 MSTORE PUSH1 0x40 SWAP1 KECCAK256 SLOAD SWAP1 JUMP JUMPDEST PUSH1 0x60 PUSH1 0x1 DUP1 SLOAD PUSH2 0x2F1 SWAP1 PUSH2 0x1A20 JUMP JUMPDEST PUSH1 0x9 PUSH1 0x20 MSTORE PUSH1 0x0 SWAP1 DUP2 MSTORE PUSH1 0x40 SWAP1 KECCAK256 SLOAD DUP2 JUMP JUMPDEST PUSH1 0x0 DUP1 DUP3 PUSH1 0x40 MLOAD PUSH1 0x20 ADD PUSH2 0x559 SWAP2 SWAP1 PUSH2 0x13C6 JUMP JUMPDEST PUSH1 0x40 DUP1 MLOAD PUSH1 0x1F NOT DUP2 DUP5 SUB ADD DUP2 MSTORE SWAP2 DUP2 MSTORE DUP2 MLOAD PUSH1 0x20 SWAP3 DUP4 ADD KECCAK256 PUSH1 0x0 DUP2 DUP2 MSTORE PUSH1 0xA SWAP1 SWAP4 MSTORE SWAP2 KECCAK256 SLOAD SWAP1 SWAP2 POP PUSH1 0xFF AND PUSH2 0x5A0 JUMPI PUSH1 0x40 MLOAD PUSH3 0x461BCD PUSH1 0xE5 SHL DUP2 MSTORE PUSH1 0x4 ADD PUSH2 0x39B SWAP1 PUSH2 0x182F JUMP JUMPDEST CALLER PUSH1 0x0 SWAP1 DUP2 MSTORE PUSH1 0x9 PUSH1 0x20 MSTORE PUSH1 0x40 SWAP1 KECCAK256 SLOAD PUSH2 0x2710 GT ISZERO PUSH2 0x5D1 JUMPI PUSH1 0x40 MLOAD PUSH3 0x461BCD PUSH1 0xE5 SHL DUP2 MSTORE PUSH1 0x4 ADD PUSH2 0x39B SWAP1 PUSH2 0x14F6 JUMP JUMPDEST PUSH2 0x5DB PUSH1 0x8 PUSH2 0xBC7 JUMP JUMPDEST PUSH1 0x0 PUSH2 0x5E7 PUSH1 0x8 PUSH2 0xBD0 JUMP JUMPDEST SWAP1 POP PUSH2 0x5F3 CALLER DUP3 PUSH2 0xBD4 JUMP JUMPDEST PUSH2 0x5FD DUP2 DUP6 PUSH2 0xBF2 JUMP JUMPDEST PUSH1 0x0 SWAP2 DUP3 MSTORE PUSH1 0xB PUSH1 0x20 MSTORE PUSH1 0x40 SWAP1 SWAP2 KECCAK256 DUP2 SWAP1 SSTORE SWAP3 SWAP2 POP POP JUMP JUMPDEST PUSH2 0x61D PUSH2 0x9AB JUMP JUMPDEST PUSH1 0x1 PUSH1 0x1 PUSH1 0xA0 SHL SUB AND DUP3 PUSH1 0x1 PUSH1 0x1 PUSH1 0xA0 SHL SUB AND EQ ISZERO PUSH2 0x64E JUMPI PUSH1 0x40 MLOAD PUSH3 0x461BCD PUSH1 0xE5 SHL DUP2 MSTORE PUSH1 0x4 ADD PUSH2 0x39B SWAP1 PUSH2 0x159C JUMP JUMPDEST DUP1 PUSH1 0x5 PUSH1 0x0 PUSH2 0x65B PUSH2 0x9AB JUMP JUMPDEST PUSH1 0x1 PUSH1 0x1 PUSH1 0xA0 SHL SUB SWAP1 DUP2 AND DUP3 MSTORE PUSH1 0x20 DUP1 DUP4 ADD SWAP4 SWAP1 SWAP4 MSTORE PUSH1 0x40 SWAP2 DUP3 ADD PUSH1 0x0 SWAP1 DUP2 KECCAK256 SWAP2 DUP8 AND DUP1 DUP3 MSTORE SWAP2 SWAP1 SWAP4 MSTORE SWAP2 KECCAK256 DUP1 SLOAD PUSH1 0xFF NOT AND SWAP3 ISZERO ISZERO SWAP3 SWAP1 SWAP3 OR SWAP1 SWAP2 SSTORE PUSH2 0x69F PUSH2 0x9AB JUMP JUMPDEST PUSH1 0x1 PUSH1 0x1 PUSH1 0xA0 SHL SUB AND PUSH32 0x17307EAB39AB6107E8899845AD3D59BD9653F200F220920489CA2B5937696C31 DUP4 PUSH1 0x40 MLOAD PUSH2 0x6D7 SWAP2 SWAP1 PUSH2 0x1486 JUMP JUMPDEST PUSH1 0x40 MLOAD DUP1 SWAP2 SUB SWAP1 LOG3 POP POP JUMP JUMPDEST PUSH1 0xA PUSH1 0x20 MSTORE PUSH1 0x0 SWAP1 DUP2 MSTORE PUSH1 0x40 SWAP1 KECCAK256 SLOAD PUSH1 0xFF AND DUP2 JUMP JUMPDEST PUSH1 0xB PUSH1 0x20 MSTORE PUSH1 0x0 SWAP1 DUP2 MSTORE PUSH1 0x40 SWAP1 KECCAK256 SLOAD DUP2 JUMP JUMPDEST PUSH2 0x71B PUSH2 0x715 PUSH2 0x9AB JUMP JUMPDEST DUP4 PUSH2 0xA1D JUMP JUMPDEST PUSH2 0x737 JUMPI PUSH1 0x40 MLOAD PUSH3 0x461BCD PUSH1 0xE5 SHL DUP2 MSTORE PUSH1 0x4 ADD PUSH2 0x39B SWAP1 PUSH2 0x192E JUMP JUMPDEST PUSH2 0x743 DUP5 DUP5 DUP5 DUP5 PUSH2 0xC36 JUMP JUMPDEST POP POP POP POP JUMP JUMPDEST PUSH1 0x60 PUSH2 0x754 DUP3 PUSH2 0x98E JUMP JUMPDEST PUSH2 0x770 JUMPI PUSH1 0x40 MLOAD PUSH3 0x461BCD PUSH1 0xE5 SHL DUP2 MSTORE PUSH1 0x4 ADD PUSH2 0x39B SWAP1 PUSH2 0x1792 JUMP JUMPDEST PUSH1 0x0 DUP3 DUP2 MSTORE PUSH1 0x6 PUSH1 0x20 MSTORE PUSH1 0x40 DUP2 KECCAK256 DUP1 SLOAD PUSH2 0x789 SWAP1 PUSH2 0x1A20 JUMP JUMPDEST DUP1 PUSH1 0x1F ADD PUSH1 0x20 DUP1 SWAP2 DIV MUL PUSH1 0x20 ADD PUSH1 0x40 MLOAD SWAP1 DUP2 ADD PUSH1 0x40 MSTORE DUP1 SWAP3 SWAP2 SWAP1 DUP2 DUP2 MSTORE PUSH1 0x20 ADD DUP3 DUP1 SLOAD PUSH2 0x7B5 SWAP1 PUSH2 0x1A20 JUMP JUMPDEST DUP1 ISZERO PUSH2 0x802 JUMPI DUP1 PUSH1 0x1F LT PUSH2 0x7D7 JUMPI PUSH2 0x100 DUP1 DUP4 SLOAD DIV MUL DUP4 MSTORE SWAP2 PUSH1 0x20 ADD SWAP2 PUSH2 0x802 JUMP JUMPDEST DUP3 ADD SWAP2 SWAP1 PUSH1 0x0 MSTORE PUSH1 0x20 PUSH1 0x0 KECCAK256 SWAP1 JUMPDEST DUP2 SLOAD DUP2 MSTORE SWAP1 PUSH1 0x1 ADD SWAP1 PUSH1 0x20 ADD DUP1 DUP4 GT PUSH2 0x7E5 JUMPI DUP3 SWAP1 SUB PUSH1 0x1F AND DUP3 ADD SWAP2 JUMPDEST POP POP POP POP POP SWAP1 POP PUSH1 0x0 PUSH2 0x813 PUSH2 0xC69 JUMP JUMPDEST SWAP1 POP DUP1 MLOAD PUSH1 0x0 EQ ISZERO PUSH2 0x827 JUMPI POP SWAP1 POP PUSH2 0x2DD JUMP JUMPDEST DUP2 MLOAD ISZERO PUSH2 0x859 JUMPI DUP1 DUP3 PUSH1 0x40 MLOAD PUSH1 0x20 ADD PUSH2 0x841 SWAP3 SWAP2 SWAP1 PUSH2 0x13E2 JUMP JUMPDEST PUSH1 0x40 MLOAD PUSH1 0x20 DUP2 DUP4 SUB SUB DUP2 MSTORE SWAP1 PUSH1 0x40 MSTORE SWAP3 POP POP POP PUSH2 0x2DD JUMP JUMPDEST PUSH2 0x862 DUP5 PUSH2 0xC98 JUMP JUMPDEST SWAP5 SWAP4 POP POP POP POP JUMP JUMPDEST PUSH1 0x1 PUSH1 0x1 PUSH1 0xA0 SHL SUB SWAP2 DUP3 AND PUSH1 0x0 SWAP1 DUP2 MSTORE PUSH1 0x5 PUSH1 0x20 SWAP1 DUP2 MSTORE PUSH1 0x40 DUP1 DUP4 KECCAK256 SWAP4 SWAP1 SWAP5 AND DUP3 MSTORE SWAP2 SWAP1 SWAP2 MSTORE KECCAK256 SLOAD PUSH1 0xFF AND SWAP1 JUMP JUMPDEST PUSH1 0x7 SLOAD PUSH1 0x40 MLOAD PUSH4 0x23B872DD PUSH1 0xE0 SHL DUP2 MSTORE PUSH1 0x0 SWAP2 PUSH1 0x1 PUSH1 0x1 PUSH1 0xA0 SHL SUB AND SWAP1 PUSH4 0x23B872DD SWAP1 PUSH2 0x8CD SWAP1 CALLER SWAP1 ADDRESS SWAP1 DUP8 SWAP1 PUSH1 0x4 ADD PUSH2 0x1425 JUMP JUMPDEST PUSH1 0x20 PUSH1 0x40 MLOAD DUP1 DUP4 SUB DUP2 PUSH1 0x0 DUP8 DUP1 EXTCODESIZE ISZERO DUP1 ISZERO PUSH2 0x8E7 JUMPI PUSH1 0x0 DUP1 REVERT JUMPDEST POP GAS CALL ISZERO DUP1 ISZERO PUSH2 0x8FB JUMPI RETURNDATASIZE PUSH1 0x0 DUP1 RETURNDATACOPY RETURNDATASIZE PUSH1 0x0 REVERT JUMPDEST POP POP POP POP PUSH1 0x40 MLOAD RETURNDATASIZE PUSH1 0x1F NOT PUSH1 0x1F DUP3 ADD AND DUP3 ADD DUP1 PUSH1 0x40 MSTORE POP DUP2 ADD SWAP1 PUSH2 0x91F SWAP2 SWAP1 PUSH2 0x12E8 JUMP JUMPDEST PUSH2 0x93B JUMPI PUSH1 0x40 MLOAD PUSH3 0x461BCD PUSH1 0xE5 SHL DUP2 MSTORE PUSH1 0x4 ADD PUSH2 0x39B SWAP1 PUSH2 0x197F JUMP JUMPDEST CALLER PUSH1 0x0 SWAP1 DUP2 MSTORE PUSH1 0x9 PUSH1 0x20 MSTORE PUSH1 0x40 DUP2 KECCAK256 DUP1 SLOAD DUP5 SWAP3 SWAP1 PUSH2 0x95A SWAP1 DUP5 SWAP1 PUSH2 0x19B1 JUMP JUMPDEST SWAP1 SWAP2 SSTORE POP POP CALLER PUSH1 0x0 SWAP1 DUP2 MSTORE PUSH1 0x9 PUSH1 0x20 MSTORE PUSH1 0x40 SWAP1 KECCAK256 SLOAD SWAP3 SWAP2 POP POP JUMP JUMPDEST PUSH1 0x1 PUSH1 0x1 PUSH1 0xE0 SHL SUB NOT DUP2 AND PUSH4 0x1FFC9A7 PUSH1 0xE0 SHL EQ SWAP2 SWAP1 POP JUMP JUMPDEST PUSH1 0x0 SWAP1 DUP2 MSTORE PUSH1 0x2 PUSH1 0x20 MSTORE PUSH1 0x40 SWAP1 KECCAK256 SLOAD PUSH1 0x1 PUSH1 0x1 PUSH1 0xA0 SHL SUB AND ISZERO ISZERO SWAP1 JUMP JUMPDEST CALLER SWAP1 JUMP JUMPDEST PUSH1 0x0 DUP2 DUP2 MSTORE PUSH1 0x4 PUSH1 0x20 MSTORE PUSH1 0x40 SWAP1 KECCAK256 DUP1 SLOAD PUSH1 0x1 PUSH1 0x1 PUSH1 0xA0 SHL SUB NOT AND PUSH1 0x1 PUSH1 0x1 PUSH1 0xA0 SHL SUB DUP5 AND SWAP1 DUP2 OR SWAP1 SWAP2 SSTORE DUP2 SWAP1 PUSH2 0x9E4 DUP3 PUSH2 0x4AB JUMP JUMPDEST PUSH1 0x1 PUSH1 0x1 PUSH1 0xA0 SHL SUB AND PUSH32 0x8C5BE1E5EBEC7D5BD14F71427D1E84F3DD0314C0F7B2291E5B200AC8C7C3B925 PUSH1 0x40 MLOAD PUSH1 0x40 MLOAD DUP1 SWAP2 SUB SWAP1 LOG4 POP POP JUMP JUMPDEST PUSH1 0x0 PUSH2 0xA28 DUP3 PUSH2 0x98E JUMP JUMPDEST PUSH2 0xA44 JUMPI PUSH1 0x40 MLOAD PUSH3 0x461BCD PUSH1 0xE5 SHL DUP2 MSTORE PUSH1 0x4 ADD PUSH2 0x39B SWAP1 PUSH2 0x15D3 JUMP JUMPDEST PUSH1 0x0 PUSH2 0xA4F DUP4 PUSH2 0x4AB JUMP JUMPDEST SWAP1 POP DUP1 PUSH1 0x1 PUSH1 0x1 PUSH1 0xA0 SHL SUB AND DUP5 PUSH1 0x1 PUSH1 0x1 PUSH1 0xA0 SHL SUB AND EQ DUP1 PUSH2 0xA8A JUMPI POP DUP4 PUSH1 0x1 PUSH1 0x1 PUSH1 0xA0 SHL SUB AND PUSH2 0xA7F DUP5 PUSH2 0x374 JUMP JUMPDEST PUSH1 0x1 PUSH1 0x1 PUSH1 0xA0 SHL SUB AND EQ JUMPDEST DUP1 PUSH2 0x862 JUMPI POP PUSH2 0x862 DUP2 DUP6 PUSH2 0x86A JUMP JUMPDEST DUP3 PUSH1 0x1 PUSH1 0x1 PUSH1 0xA0 SHL SUB AND PUSH2 0xAAD DUP3 PUSH2 0x4AB JUMP JUMPDEST PUSH1 0x1 PUSH1 0x1 PUSH1 0xA0 SHL SUB AND EQ PUSH2 0xAD3 JUMPI PUSH1 0x40 MLOAD PUSH3 0x461BCD PUSH1 0xE5 SHL DUP2 MSTORE PUSH1 0x4 ADD PUSH2 0x39B SWAP1 PUSH2 0x1855 JUMP JUMPDEST PUSH1 0x1 PUSH1 0x1 PUSH1 0xA0 SHL SUB DUP3 AND PUSH2 0xAF9 JUMPI PUSH1 0x40 MLOAD PUSH3 0x461BCD PUSH1 0xE5 SHL DUP2 MSTORE PUSH1 0x4 ADD PUSH2 0x39B SWAP1 PUSH2 0x1558 JUMP JUMPDEST PUSH2 0xB04 DUP4 DUP4 DUP4 PUSH2 0x453 JUMP JUMPDEST PUSH2 0xB0F PUSH1 0x0 DUP3 PUSH2 0x9AF JUMP JUMPDEST PUSH1 0x1 PUSH1 0x1 PUSH1 0xA0 SHL SUB DUP4 AND PUSH1 0x0 SWAP1 DUP2 MSTORE PUSH1 0x3 PUSH1 0x20 MSTORE PUSH1 0x40 DUP2 KECCAK256 DUP1 SLOAD PUSH1 0x1 SWAP3 SWAP1 PUSH2 0xB38 SWAP1 DUP5 SWAP1 PUSH2 0x19DD JUMP JUMPDEST SWAP1 SWAP2 SSTORE POP POP PUSH1 0x1 PUSH1 0x1 PUSH1 0xA0 SHL SUB DUP3 AND PUSH1 0x0 SWAP1 DUP2 MSTORE PUSH1 0x3 PUSH1 0x20 MSTORE PUSH1 0x40 DUP2 KECCAK256 DUP1 SLOAD PUSH1 0x1 SWAP3 SWAP1 PUSH2 0xB66 SWAP1 DUP5 SWAP1 PUSH2 0x19B1 JUMP JUMPDEST SWAP1 SWAP2 SSTORE POP POP PUSH1 0x0 DUP2 DUP2 MSTORE PUSH1 0x2 PUSH1 0x20 MSTORE PUSH1 0x40 DUP1 DUP3 KECCAK256 DUP1 SLOAD PUSH1 0x1 PUSH1 0x1 PUSH1 0xA0 SHL SUB NOT AND PUSH1 0x1 PUSH1 0x1 PUSH1 0xA0 SHL SUB DUP7 DUP2 AND SWAP2 DUP3 OR SWAP1 SWAP3 SSTORE SWAP2 MLOAD DUP5 SWAP4 SWAP2 DUP8 AND SWAP2 PUSH32 0xDDF252AD1BE2C89B69C2B068FC378DAA952BA7F163C4A11628F55A4DF523B3EF SWAP2 LOG4 POP POP POP JUMP JUMPDEST DUP1 SLOAD PUSH1 0x1 ADD SWAP1 SSTORE JUMP JUMPDEST SLOAD SWAP1 JUMP JUMPDEST PUSH2 0xBEE DUP3 DUP3 PUSH1 0x40 MLOAD DUP1 PUSH1 0x20 ADD PUSH1 0x40 MSTORE DUP1 PUSH1 0x0 DUP2 MSTORE POP PUSH2 0xD1B JUMP JUMPDEST POP POP JUMP JUMPDEST PUSH2 0xBFB DUP3 PUSH2 0x98E JUMP JUMPDEST PUSH2 0xC17 JUMPI PUSH1 0x40 MLOAD PUSH3 0x461BCD PUSH1 0xE5 SHL DUP2 MSTORE PUSH1 0x4 ADD PUSH2 0x39B SWAP1 PUSH2 0x170F JUMP JUMPDEST PUSH1 0x0 DUP3 DUP2 MSTORE PUSH1 0x6 PUSH1 0x20 SWAP1 DUP2 MSTORE PUSH1 0x40 SWAP1 SWAP2 KECCAK256 DUP3 MLOAD PUSH2 0x453 SWAP3 DUP5 ADD SWAP1 PUSH2 0x1069 JUMP JUMPDEST PUSH2 0xC41 DUP5 DUP5 DUP5 PUSH2 0xA9A JUMP JUMPDEST PUSH2 0xC4D DUP5 DUP5 DUP5 DUP5 PUSH2 0xD4E JUMP JUMPDEST PUSH2 0x743 JUMPI PUSH1 0x40 MLOAD PUSH3 0x461BCD PUSH1 0xE5 SHL DUP2 MSTORE PUSH1 0x4 ADD PUSH2 0x39B SWAP1 PUSH2 0x14A4 JUMP JUMPDEST PUSH1 0x40 DUP1 MLOAD DUP1 DUP3 ADD SWAP1 SWAP2 MSTORE PUSH1 0x15 DUP2 MSTORE PUSH21 0x68747470733A2F2F697066732E696F2F697066732F PUSH1 0x58 SHL PUSH1 0x20 DUP3 ADD MSTORE SWAP1 JUMP JUMPDEST PUSH1 0x60 PUSH2 0xCA3 DUP3 PUSH2 0x98E JUMP JUMPDEST PUSH2 0xCBF JUMPI PUSH1 0x40 MLOAD PUSH3 0x461BCD PUSH1 0xE5 SHL DUP2 MSTORE PUSH1 0x4 ADD PUSH2 0x39B SWAP1 PUSH2 0x189E JUMP JUMPDEST PUSH1 0x0 PUSH2 0xCC9 PUSH2 0xC69 JUMP JUMPDEST SWAP1 POP PUSH1 0x0 DUP2 MLOAD GT PUSH2 0xCE9 JUMPI PUSH1 0x40 MLOAD DUP1 PUSH1 0x20 ADD PUSH1 0x40 MSTORE DUP1 PUSH1 0x0 DUP2 MSTORE POP PUSH2 0xD14 JUMP JUMPDEST DUP1 PUSH2 0xCF3 DUP5 PUSH2 0xE69 JUMP JUMPDEST PUSH1 0x40 MLOAD PUSH1 0x20 ADD PUSH2 0xD04 SWAP3 SWAP2 SWAP1 PUSH2 0x13E2 JUMP JUMPDEST PUSH1 0x40 MLOAD PUSH1 0x20 DUP2 DUP4 SUB SUB DUP2 MSTORE SWAP1 PUSH1 0x40 MSTORE JUMPDEST SWAP4 SWAP3 POP POP POP JUMP JUMPDEST PUSH2 0xD25 DUP4 DUP4 PUSH2 0xF84 JUMP JUMPDEST PUSH2 0xD32 PUSH1 0x0 DUP5 DUP5 DUP5 PUSH2 0xD4E JUMP JUMPDEST PUSH2 0x453 JUMPI PUSH1 0x40 MLOAD PUSH3 0x461BCD PUSH1 0xE5 SHL DUP2 MSTORE PUSH1 0x4 ADD PUSH2 0x39B SWAP1 PUSH2 0x14A4 JUMP JUMPDEST PUSH1 0x0 PUSH2 0xD62 DUP5 PUSH1 0x1 PUSH1 0x1 PUSH1 0xA0 SHL SUB AND PUSH2 0x1063 JUMP JUMPDEST ISZERO PUSH2 0xE5E JUMPI DUP4 PUSH1 0x1 PUSH1 0x1 PUSH1 0xA0 SHL SUB AND PUSH4 0x150B7A02 PUSH2 0xD7E PUSH2 0x9AB JUMP JUMPDEST DUP8 DUP7 DUP7 PUSH1 0x40 MLOAD DUP6 PUSH4 0xFFFFFFFF AND PUSH1 0xE0 SHL DUP2 MSTORE PUSH1 0x4 ADD PUSH2 0xDA0 SWAP5 SWAP4 SWAP3 SWAP2 SWAP1 PUSH2 0x1449 JUMP JUMPDEST PUSH1 0x20 PUSH1 0x40 MLOAD DUP1 DUP4 SUB DUP2 PUSH1 0x0 DUP8 DUP1 EXTCODESIZE ISZERO DUP1 ISZERO PUSH2 0xDBA JUMPI PUSH1 0x0 DUP1 REVERT JUMPDEST POP GAS CALL SWAP3 POP POP POP DUP1 ISZERO PUSH2 0xDEA JUMPI POP PUSH1 0x40 DUP1 MLOAD PUSH1 0x1F RETURNDATASIZE SWAP1 DUP2 ADD PUSH1 0x1F NOT AND DUP3 ADD SWAP1 SWAP3 MSTORE PUSH2 0xDE7 SWAP2 DUP2 ADD SWAP1 PUSH2 0x1338 JUMP JUMPDEST PUSH1 0x1 JUMPDEST PUSH2 0xE44 JUMPI RETURNDATASIZE DUP1 DUP1 ISZERO PUSH2 0xE18 JUMPI PUSH1 0x40 MLOAD SWAP2 POP PUSH1 0x1F NOT PUSH1 0x3F RETURNDATASIZE ADD AND DUP3 ADD PUSH1 0x40 MSTORE RETURNDATASIZE DUP3 MSTORE RETURNDATASIZE PUSH1 0x0 PUSH1 0x20 DUP5 ADD RETURNDATACOPY PUSH2 0xE1D JUMP JUMPDEST PUSH1 0x60 SWAP2 POP JUMPDEST POP DUP1 MLOAD PUSH2 0xE3C JUMPI PUSH1 0x40 MLOAD PUSH3 0x461BCD PUSH1 0xE5 SHL DUP2 MSTORE PUSH1 0x4 ADD PUSH2 0x39B SWAP1 PUSH2 0x14A4 JUMP JUMPDEST DUP1 MLOAD DUP2 PUSH1 0x20 ADD REVERT JUMPDEST PUSH1 0x1 PUSH1 0x1 PUSH1 0xE0 SHL SUB NOT AND PUSH4 0xA85BD01 PUSH1 0xE1 SHL EQ SWAP1 POP PUSH2 0x862 JUMP JUMPDEST POP PUSH1 0x1 SWAP5 SWAP4 POP POP POP POP JUMP JUMPDEST PUSH1 0x60 DUP2 PUSH2 0xE8E JUMPI POP PUSH1 0x40 DUP1 MLOAD DUP1 DUP3 ADD SWAP1 SWAP2 MSTORE PUSH1 0x1 DUP2 MSTORE PUSH1 0x3 PUSH1 0xFC SHL PUSH1 0x20 DUP3 ADD MSTORE PUSH2 0x2DD JUMP JUMPDEST DUP2 PUSH1 0x0 JUMPDEST DUP2 ISZERO PUSH2 0xEB8 JUMPI DUP1 PUSH2 0xEA2 DUP2 PUSH2 0x1A5B JUMP JUMPDEST SWAP2 POP PUSH2 0xEB1 SWAP1 POP PUSH1 0xA DUP4 PUSH2 0x19C9 JUMP JUMPDEST SWAP2 POP PUSH2 0xE92 JUMP JUMPDEST PUSH1 0x0 DUP2 PUSH8 0xFFFFFFFFFFFFFFFF DUP2 GT ISZERO PUSH2 0xEE1 JUMPI PUSH4 0x4E487B71 PUSH1 0xE0 SHL PUSH1 0x0 MSTORE PUSH1 0x41 PUSH1 0x4 MSTORE PUSH1 0x24 PUSH1 0x0 REVERT JUMPDEST PUSH1 0x40 MLOAD SWAP1 DUP1 DUP3 MSTORE DUP1 PUSH1 0x1F ADD PUSH1 0x1F NOT AND PUSH1 0x20 ADD DUP3 ADD PUSH1 0x40 MSTORE DUP1 ISZERO PUSH2 0xF0B JUMPI PUSH1 0x20 DUP3 ADD DUP2 DUP1 CALLDATASIZE DUP4 CALLDATACOPY ADD SWAP1 POP JUMPDEST POP SWAP1 POP JUMPDEST DUP5 ISZERO PUSH2 0x862 JUMPI PUSH2 0xF20 PUSH1 0x1 DUP4 PUSH2 0x19DD JUMP JUMPDEST SWAP2 POP PUSH2 0xF2D PUSH1 0xA DUP7 PUSH2 0x1A76 JUMP JUMPDEST PUSH2 0xF38 SWAP1 PUSH1 0x30 PUSH2 0x19B1 JUMP JUMPDEST PUSH1 0xF8 SHL DUP2 DUP4 DUP2 MLOAD DUP2 LT PUSH2 0xF5B JUMPI PUSH4 0x4E487B71 PUSH1 0xE0 SHL PUSH1 0x0 MSTORE PUSH1 0x32 PUSH1 0x4 MSTORE PUSH1 0x24 PUSH1 0x0 REVERT JUMPDEST PUSH1 0x20 ADD ADD SWAP1 PUSH1 0x1 PUSH1 0x1 PUSH1 0xF8 SHL SUB NOT AND SWAP1 DUP2 PUSH1 0x0 BYTE SWAP1 MSTORE8 POP PUSH2 0xF7D PUSH1 0xA DUP7 PUSH2 0x19C9 JUMP JUMPDEST SWAP5 POP PUSH2 0xF0F JUMP JUMPDEST PUSH1 0x1 PUSH1 0x1 PUSH1 0xA0 SHL SUB DUP3 AND PUSH2 0xFAA JUMPI PUSH1 0x40 MLOAD PUSH3 0x461BCD PUSH1 0xE5 SHL DUP2 MSTORE PUSH1 0x4 ADD PUSH2 0x39B SWAP1 PUSH2 0x175D JUMP JUMPDEST PUSH2 0xFB3 DUP2 PUSH2 0x98E JUMP JUMPDEST ISZERO PUSH2 0xFD0 JUMPI PUSH1 0x40 MLOAD PUSH3 0x461BCD PUSH1 0xE5 SHL DUP2 MSTORE PUSH1 0x4 ADD PUSH2 0x39B SWAP1 PUSH2 0x1521 JUMP JUMPDEST PUSH2 0xFDC PUSH1 0x0 DUP4 DUP4 PUSH2 0x453 JUMP JUMPDEST PUSH1 0x1 PUSH1 0x1 PUSH1 0xA0 SHL SUB DUP3 AND PUSH1 0x0 SWAP1 DUP2 MSTORE PUSH1 0x3 PUSH1 0x20 MSTORE PUSH1 0x40 DUP2 KECCAK256 DUP1 SLOAD PUSH1 0x1 SWAP3 SWAP1 PUSH2 0x1005 SWAP1 DUP5 SWAP1 PUSH2 0x19B1 JUMP JUMPDEST SWAP1 SWAP2 SSTORE POP POP PUSH1 0x0 DUP2 DUP2 MSTORE PUSH1 0x2 PUSH1 0x20 MSTORE PUSH1 0x40 DUP1 DUP3 KECCAK256 DUP1 SLOAD PUSH1 0x1 PUSH1 0x1 PUSH1 0xA0 SHL SUB NOT AND PUSH1 0x1 PUSH1 0x1 PUSH1 0xA0 SHL SUB DUP7 AND SWAP1 DUP2 OR SWAP1 SWAP2 SSTORE SWAP1 MLOAD DUP4 SWAP3 SWAP1 PUSH32 0xDDF252AD1BE2C89B69C2B068FC378DAA952BA7F163C4A11628F55A4DF523B3EF SWAP1 DUP3 SWAP1 LOG4 POP POP JUMP JUMPDEST EXTCODESIZE ISZERO ISZERO SWAP1 JUMP JUMPDEST DUP3 DUP1 SLOAD PUSH2 0x1075 SWAP1 PUSH2 0x1A20 JUMP JUMPDEST SWAP1 PUSH1 0x0 MSTORE PUSH1 0x20 PUSH1 0x0 KECCAK256 SWAP1 PUSH1 0x1F ADD PUSH1 0x20 SWAP1 DIV DUP2 ADD SWAP3 DUP3 PUSH2 0x1097 JUMPI PUSH1 0x0 DUP6 SSTORE PUSH2 0x10DD JUMP JUMPDEST DUP3 PUSH1 0x1F LT PUSH2 0x10B0 JUMPI DUP1 MLOAD PUSH1 0xFF NOT AND DUP4 DUP1 ADD OR DUP6 SSTORE PUSH2 0x10DD JUMP JUMPDEST DUP3 DUP1 ADD PUSH1 0x1 ADD DUP6 SSTORE DUP3 ISZERO PUSH2 0x10DD JUMPI SWAP2 DUP3 ADD JUMPDEST DUP3 DUP2 GT ISZERO PUSH2 0x10DD JUMPI DUP3 MLOAD DUP3 SSTORE SWAP2 PUSH1 0x20 ADD SWAP2 SWAP1 PUSH1 0x1 ADD SWAP1 PUSH2 0x10C2 JUMP JUMPDEST POP PUSH2 0x10E9 SWAP3 SWAP2 POP PUSH2 0x10ED JUMP JUMPDEST POP SWAP1 JUMP JUMPDEST JUMPDEST DUP1 DUP3 GT ISZERO PUSH2 0x10E9 JUMPI PUSH1 0x0 DUP2 SSTORE PUSH1 0x1 ADD PUSH2 0x10EE JUMP JUMPDEST PUSH1 0x0 PUSH8 0xFFFFFFFFFFFFFFFF DUP1 DUP5 GT ISZERO PUSH2 0x111D JUMPI PUSH2 0x111D PUSH2 0x1AB6 JUMP JUMPDEST PUSH1 0x40 MLOAD PUSH1 0x1F DUP6 ADD PUSH1 0x1F NOT AND DUP2 ADD PUSH1 0x20 ADD DUP3 DUP2 GT DUP3 DUP3 LT OR ISZERO PUSH2 0x1141 JUMPI PUSH2 0x1141 PUSH2 0x1AB6 JUMP JUMPDEST PUSH1 0x40 MSTORE DUP5 DUP2 MSTORE SWAP2 POP DUP2 DUP4 DUP6 ADD DUP7 LT ISZERO PUSH2 0x1159 JUMPI PUSH1 0x0 DUP1 REVERT JUMPDEST DUP5 DUP5 PUSH1 0x20 DUP4 ADD CALLDATACOPY PUSH1 0x0 PUSH1 0x20 DUP7 DUP4 ADD ADD MSTORE POP POP SWAP4 SWAP3 POP POP POP JUMP JUMPDEST DUP1 CALLDATALOAD PUSH1 0x1 PUSH1 0x1 PUSH1 0xA0 SHL SUB DUP2 AND DUP2 EQ PUSH2 0x2DD JUMPI PUSH1 0x0 DUP1 REVERT JUMPDEST PUSH1 0x0 PUSH1 0x20 DUP3 DUP5 SUB SLT ISZERO PUSH2 0x119A JUMPI DUP1 DUP2 REVERT JUMPDEST PUSH2 0xD14 DUP3 PUSH2 0x1172 JUMP JUMPDEST PUSH1 0x0 DUP1 PUSH1 0x40 DUP4 DUP6 SUB SLT ISZERO PUSH2 0x11B5 JUMPI DUP1 DUP2 REVERT JUMPDEST PUSH2 0x11BE DUP4 PUSH2 0x1172 JUMP JUMPDEST SWAP2 POP PUSH2 0x11CC PUSH1 0x20 DUP5 ADD PUSH2 0x1172 JUMP JUMPDEST SWAP1 POP SWAP3 POP SWAP3 SWAP1 POP JUMP JUMPDEST PUSH1 0x0 DUP1 PUSH1 0x0 PUSH1 0x60 DUP5 DUP7 SUB SLT ISZERO PUSH2 0x11E9 JUMPI DUP1 DUP2 REVERT JUMPDEST PUSH2 0x11F2 DUP5 PUSH2 0x1172 JUMP JUMPDEST SWAP3 POP PUSH2 0x1200 PUSH1 0x20 DUP6 ADD PUSH2 0x1172 JUMP JUMPDEST SWAP2 POP PUSH1 0x40 DUP5 ADD CALLDATALOAD SWAP1 POP SWAP3 POP SWAP3 POP SWAP3 JUMP JUMPDEST PUSH1 0x0 DUP1 PUSH1 0x0 DUP1 PUSH1 0x80 DUP6 DUP8 SUB SLT ISZERO PUSH2 0x1225 JUMPI DUP1 DUP2 REVERT JUMPDEST PUSH2 0x122E DUP6 PUSH2 0x1172 JUMP JUMPDEST SWAP4 POP PUSH2 0x123C PUSH1 0x20 DUP7 ADD PUSH2 0x1172 JUMP JUMPDEST SWAP3 POP PUSH1 0x40 DUP6 ADD CALLDATALOAD SWAP2 POP PUSH1 0x60 DUP6 ADD CALLDATALOAD PUSH8 0xFFFFFFFFFFFFFFFF DUP2 GT ISZERO PUSH2 0x125E JUMPI DUP2 DUP3 REVERT JUMPDEST DUP6 ADD PUSH1 0x1F DUP2 ADD DUP8 SGT PUSH2 0x126E JUMPI DUP2 DUP3 REVERT JUMPDEST PUSH2 0x127D DUP8 DUP3 CALLDATALOAD PUSH1 0x20 DUP5 ADD PUSH2 0x1102 JUMP JUMPDEST SWAP2 POP POP SWAP3 SWAP6 SWAP2 SWAP5 POP SWAP3 POP JUMP JUMPDEST PUSH1 0x0 DUP1 PUSH1 0x40 DUP4 DUP6 SUB SLT ISZERO PUSH2 0x129B JUMPI DUP2 DUP3 REVERT JUMPDEST PUSH2 0x12A4 DUP4 PUSH2 0x1172 JUMP JUMPDEST SWAP2 POP PUSH1 0x20 DUP4 ADD CALLDATALOAD PUSH2 0x12B4 DUP2 PUSH2 0x1ACC JUMP JUMPDEST DUP1 SWAP2 POP POP SWAP3 POP SWAP3 SWAP1 POP JUMP JUMPDEST PUSH1 0x0 DUP1 PUSH1 0x40 DUP4 DUP6 SUB SLT ISZERO PUSH2 0x12D1 JUMPI DUP2 DUP3 REVERT JUMPDEST PUSH2 0x12DA DUP4 PUSH2 0x1172 JUMP JUMPDEST SWAP5 PUSH1 0x20 SWAP4 SWAP1 SWAP4 ADD CALLDATALOAD SWAP4 POP POP POP JUMP JUMPDEST PUSH1 0x0 PUSH1 0x20 DUP3 DUP5 SUB SLT ISZERO PUSH2 0x12F9 JUMPI DUP1 DUP2 REVERT JUMPDEST DUP2 MLOAD PUSH2 0xD14 DUP2 PUSH2 0x1ACC JUMP JUMPDEST PUSH1 0x0 PUSH1 0x20 DUP3 DUP5 SUB SLT ISZERO PUSH2 0x1315 JUMPI DUP1 DUP2 REVERT JUMPDEST POP CALLDATALOAD SWAP2 SWAP1 POP JUMP JUMPDEST PUSH1 0x0 PUSH1 0x20 DUP3 DUP5 SUB SLT ISZERO PUSH2 0x132D JUMPI DUP1 DUP2 REVERT JUMPDEST DUP2 CALLDATALOAD PUSH2 0xD14 DUP2 PUSH2 0x1ADD JUMP JUMPDEST PUSH1 0x0 PUSH1 0x20 DUP3 DUP5 SUB SLT ISZERO PUSH2 0x1349 JUMPI DUP1 DUP2 REVERT JUMPDEST DUP2 MLOAD PUSH2 0xD14 DUP2 PUSH2 0x1ADD JUMP JUMPDEST PUSH1 0x0 PUSH1 0x20 DUP3 DUP5 SUB SLT ISZERO PUSH2 0x1365 JUMPI DUP1 DUP2 REVERT JUMPDEST DUP2 CALLDATALOAD PUSH8 0xFFFFFFFFFFFFFFFF DUP2 GT ISZERO PUSH2 0x137B JUMPI DUP2 DUP3 REVERT JUMPDEST DUP3 ADD PUSH1 0x1F DUP2 ADD DUP5 SGT PUSH2 0x138B JUMPI DUP2 DUP3 REVERT JUMPDEST PUSH2 0x862 DUP5 DUP3 CALLDATALOAD PUSH1 0x20 DUP5 ADD PUSH2 0x1102 JUMP JUMPDEST PUSH1 0x0 DUP2 MLOAD DUP1 DUP5 MSTORE PUSH2 0x13B2 DUP2 PUSH1 0x20 DUP7 ADD PUSH1 0x20 DUP7 ADD PUSH2 0x19F4 JUMP JUMPDEST PUSH1 0x1F ADD PUSH1 0x1F NOT AND SWAP3 SWAP1 SWAP3 ADD PUSH1 0x20 ADD SWAP3 SWAP2 POP POP JUMP JUMPDEST PUSH1 0x0 DUP3 MLOAD PUSH2 0x13D8 DUP2 DUP5 PUSH1 0x20 DUP8 ADD PUSH2 0x19F4 JUMP JUMPDEST SWAP2 SWAP1 SWAP2 ADD SWAP3 SWAP2 POP POP JUMP JUMPDEST PUSH1 0x0 DUP4 MLOAD PUSH2 0x13F4 DUP2 DUP5 PUSH1 0x20 DUP9 ADD PUSH2 0x19F4 JUMP JUMPDEST DUP4 MLOAD SWAP1 DUP4 ADD SWAP1 PUSH2 0x1408 DUP2 DUP4 PUSH1 0x20 DUP9 ADD PUSH2 0x19F4 JUMP JUMPDEST ADD SWAP5 SWAP4 POP POP POP POP JUMP JUMPDEST PUSH1 0x1 PUSH1 0x1 PUSH1 0xA0 SHL SUB SWAP2 SWAP1 SWAP2 AND DUP2 MSTORE PUSH1 0x20 ADD SWAP1 JUMP JUMPDEST PUSH1 0x1 PUSH1 0x1 PUSH1 0xA0 SHL SUB SWAP4 DUP5 AND DUP2 MSTORE SWAP2 SWAP1 SWAP3 AND PUSH1 0x20 DUP3 ADD MSTORE PUSH1 0x40 DUP2 ADD SWAP2 SWAP1 SWAP2 MSTORE PUSH1 0x60 ADD SWAP1 JUMP JUMPDEST PUSH1 0x1 PUSH1 0x1 PUSH1 0xA0 SHL SUB DUP6 DUP2 AND DUP3 MSTORE DUP5 AND PUSH1 0x20 DUP3 ADD MSTORE PUSH1 0x40 DUP2 ADD DUP4 SWAP1 MSTORE PUSH1 0x80 PUSH1 0x60 DUP3 ADD DUP2 SWAP1 MSTORE PUSH1 0x0 SWAP1 PUSH2 0x147C SWAP1 DUP4 ADD DUP5 PUSH2 0x139A JUMP JUMPDEST SWAP7 SWAP6 POP POP POP POP POP POP JUMP JUMPDEST SWAP1 ISZERO ISZERO DUP2 MSTORE PUSH1 0x20 ADD SWAP1 JUMP JUMPDEST PUSH1 0x0 PUSH1 0x20 DUP3 MSTORE PUSH2 0xD14 PUSH1 0x20 DUP4 ADD DUP5 PUSH2 0x139A JUMP JUMPDEST PUSH1 0x20 DUP1 DUP3 MSTORE PUSH1 0x32 SWAP1 DUP3 ADD MSTORE PUSH32 0x4552433732313A207472616E7366657220746F206E6F6E204552433732315265 PUSH1 0x40 DUP3 ADD MSTORE PUSH18 0x31B2B4BB32B91034B6B83632B6B2B73A32B9 PUSH1 0x71 SHL PUSH1 0x60 DUP3 ADD MSTORE PUSH1 0x80 ADD SWAP1 JUMP JUMPDEST PUSH1 0x20 DUP1 DUP3 MSTORE PUSH1 0x11 SWAP1 DUP3 ADD MSTORE PUSH17 0x494E414445515541544520544F4B454E53 PUSH1 0x78 SHL PUSH1 0x40 DUP3 ADD MSTORE PUSH1 0x60 ADD SWAP1 JUMP JUMPDEST PUSH1 0x20 DUP1 DUP3 MSTORE PUSH1 0x1C SWAP1 DUP3 ADD MSTORE PUSH32 0x4552433732313A20746F6B656E20616C7265616479206D696E74656400000000 PUSH1 0x40 DUP3 ADD MSTORE PUSH1 0x60 ADD SWAP1 JUMP JUMPDEST PUSH1 0x20 DUP1 DUP3 MSTORE PUSH1 0x24 SWAP1 DUP3 ADD MSTORE PUSH32 0x4552433732313A207472616E7366657220746F20746865207A65726F20616464 PUSH1 0x40 DUP3 ADD MSTORE PUSH4 0x72657373 PUSH1 0xE0 SHL PUSH1 0x60 DUP3 ADD MSTORE PUSH1 0x80 ADD SWAP1 JUMP JUMPDEST PUSH1 0x20 DUP1 DUP3 MSTORE PUSH1 0x19 SWAP1 DUP3 ADD MSTORE PUSH32 0x4552433732313A20617070726F766520746F2063616C6C657200000000000000 PUSH1 0x40 DUP3 ADD MSTORE PUSH1 0x60 ADD SWAP1 JUMP JUMPDEST PUSH1 0x20 DUP1 DUP3 MSTORE PUSH1 0x2C SWAP1 DUP3 ADD MSTORE PUSH32 0x4552433732313A206F70657261746F7220717565727920666F72206E6F6E6578 PUSH1 0x40 DUP3 ADD MSTORE PUSH12 0x34B9BA32B73A103A37B5B2B7 PUSH1 0xA1 SHL PUSH1 0x60 DUP3 ADD MSTORE PUSH1 0x80 ADD SWAP1 JUMP JUMPDEST PUSH1 0x20 DUP1 DUP3 MSTORE PUSH1 0x38 SWAP1 DUP3 ADD MSTORE PUSH32 0x4552433732313A20617070726F76652063616C6C6572206973206E6F74206F77 PUSH1 0x40 DUP3 ADD MSTORE PUSH32 0x6E6572206E6F7220617070726F76656420666F7220616C6C0000000000000000 PUSH1 0x60 DUP3 ADD MSTORE PUSH1 0x80 ADD SWAP1 JUMP JUMPDEST PUSH1 0x20 DUP1 DUP3 MSTORE PUSH1 0x2A SWAP1 DUP3 ADD MSTORE PUSH32 0x4552433732313A2062616C616E636520717565727920666F7220746865207A65 PUSH1 0x40 DUP3 ADD MSTORE PUSH10 0x726F2061646472657373 PUSH1 0xB0 SHL PUSH1 0x60 DUP3 ADD MSTORE PUSH1 0x80 ADD SWAP1 JUMP JUMPDEST PUSH1 0x20 DUP1 DUP3 MSTORE PUSH1 0x29 SWAP1 DUP3 ADD MSTORE PUSH32 0x4552433732313A206F776E657220717565727920666F72206E6F6E6578697374 PUSH1 0x40 DUP3 ADD MSTORE PUSH9 0x32B73A103A37B5B2B7 PUSH1 0xB9 SHL PUSH1 0x60 DUP3 ADD MSTORE PUSH1 0x80 ADD SWAP1 JUMP JUMPDEST PUSH1 0x20 DUP1 DUP3 MSTORE PUSH1 0x2E SWAP1 DUP3 ADD MSTORE PUSH32 0x45524337323155524953746F726167653A2055524920736574206F66206E6F6E PUSH1 0x40 DUP3 ADD MSTORE PUSH14 0x32BC34B9BA32B73A103A37B5B2B7 PUSH1 0x91 SHL PUSH1 0x60 DUP3 ADD MSTORE PUSH1 0x80 ADD SWAP1 JUMP JUMPDEST PUSH1 0x20 DUP1 DUP3 MSTORE DUP2 DUP2 ADD MSTORE PUSH32 0x4552433732313A206D696E7420746F20746865207A65726F2061646472657373 PUSH1 0x40 DUP3 ADD MSTORE PUSH1 0x60 ADD SWAP1 JUMP JUMPDEST PUSH1 0x20 DUP1 DUP3 MSTORE PUSH1 0x31 SWAP1 DUP3 ADD MSTORE PUSH32 0x45524337323155524953746F726167653A2055524920717565727920666F7220 PUSH1 0x40 DUP3 ADD MSTORE PUSH17 0x3737B732BC34B9BA32B73A103A37B5B2B7 PUSH1 0x79 SHL PUSH1 0x60 DUP3 ADD MSTORE PUSH1 0x80 ADD SWAP1 JUMP JUMPDEST PUSH1 0x20 DUP1 DUP3 MSTORE PUSH1 0x2C SWAP1 DUP3 ADD MSTORE PUSH32 0x4552433732313A20617070726F76656420717565727920666F72206E6F6E6578 PUSH1 0x40 DUP3 ADD MSTORE PUSH12 0x34B9BA32B73A103A37B5B2B7 PUSH1 0xA1 SHL PUSH1 0x60 DUP3 ADD MSTORE PUSH1 0x80 ADD SWAP1 JUMP JUMPDEST PUSH1 0x20 DUP1 DUP3 MSTORE PUSH1 0xC SWAP1 DUP3 ADD MSTORE PUSH12 0x4E4F5420464F522053414C45 PUSH1 0xA0 SHL PUSH1 0x40 DUP3 ADD MSTORE PUSH1 0x60 ADD SWAP1 JUMP JUMPDEST PUSH1 0x20 DUP1 DUP3 MSTORE PUSH1 0x29 SWAP1 DUP3 ADD MSTORE PUSH32 0x4552433732313A207472616E73666572206F6620746F6B656E20746861742069 PUSH1 0x40 DUP3 ADD MSTORE PUSH9 0x39903737BA1037BBB7 PUSH1 0xB9 SHL PUSH1 0x60 DUP3 ADD MSTORE PUSH1 0x80 ADD SWAP1 JUMP JUMPDEST PUSH1 0x20 DUP1 DUP3 MSTORE PUSH1 0x2F SWAP1 DUP3 ADD MSTORE PUSH32 0x4552433732314D657461646174613A2055524920717565727920666F72206E6F PUSH1 0x40 DUP3 ADD MSTORE PUSH15 0x3732BC34B9BA32B73A103A37B5B2B7 PUSH1 0x89 SHL PUSH1 0x60 DUP3 ADD MSTORE PUSH1 0x80 ADD SWAP1 JUMP JUMPDEST PUSH1 0x20 DUP1 DUP3 MSTORE PUSH1 0x21 SWAP1 DUP3 ADD MSTORE PUSH32 0x4552433732313A20617070726F76616C20746F2063757272656E74206F776E65 PUSH1 0x40 DUP3 ADD MSTORE PUSH1 0x39 PUSH1 0xF9 SHL PUSH1 0x60 DUP3 ADD MSTORE PUSH1 0x80 ADD SWAP1 JUMP JUMPDEST PUSH1 0x20 DUP1 DUP3 MSTORE PUSH1 0x31 SWAP1 DUP3 ADD MSTORE PUSH32 0x4552433732313A207472616E736665722063616C6C6572206973206E6F74206F PUSH1 0x40 DUP3 ADD MSTORE PUSH17 0x1DDB995C881B9BDC88185C1C1C9BDD9959 PUSH1 0x7A SHL PUSH1 0x60 DUP3 ADD MSTORE PUSH1 0x80 ADD SWAP1 JUMP JUMPDEST PUSH1 0x20 DUP1 DUP3 MSTORE PUSH1 0xF SWAP1 DUP3 ADD MSTORE PUSH15 0x1514905394D1915488119052531151 PUSH1 0x8A SHL PUSH1 0x40 DUP3 ADD MSTORE PUSH1 0x60 ADD SWAP1 JUMP JUMPDEST SWAP1 DUP2 MSTORE PUSH1 0x20 ADD SWAP1 JUMP JUMPDEST PUSH1 0x0 DUP3 NOT DUP3 GT ISZERO PUSH2 0x19C4 JUMPI PUSH2 0x19C4 PUSH2 0x1A8A JUMP JUMPDEST POP ADD SWAP1 JUMP JUMPDEST PUSH1 0x0 DUP3 PUSH2 0x19D8 JUMPI PUSH2 0x19D8 PUSH2 0x1AA0 JUMP JUMPDEST POP DIV SWAP1 JUMP JUMPDEST PUSH1 0x0 DUP3 DUP3 LT ISZERO PUSH2 0x19EF JUMPI PUSH2 0x19EF PUSH2 0x1A8A JUMP JUMPDEST POP SUB SWAP1 JUMP JUMPDEST PUSH1 0x0 JUMPDEST DUP4 DUP2 LT ISZERO PUSH2 0x1A0F JUMPI DUP2 DUP2 ADD MLOAD DUP4 DUP3 ADD MSTORE PUSH1 0x20 ADD PUSH2 0x19F7 JUMP JUMPDEST DUP4 DUP2 GT ISZERO PUSH2 0x743 JUMPI POP POP PUSH1 0x0 SWAP2 ADD MSTORE JUMP JUMPDEST PUSH1 0x2 DUP2 DIV PUSH1 0x1 DUP3 AND DUP1 PUSH2 0x1A34 JUMPI PUSH1 0x7F DUP3 AND SWAP2 POP JUMPDEST PUSH1 0x20 DUP3 LT DUP2 EQ ISZERO PUSH2 0x1A55 JUMPI PUSH4 0x4E487B71 PUSH1 0xE0 SHL PUSH1 0x0 MSTORE PUSH1 0x22 PUSH1 0x4 MSTORE PUSH1 0x24 PUSH1 0x0 REVERT JUMPDEST POP SWAP2 SWAP1 POP JUMP JUMPDEST PUSH1 0x0 PUSH1 0x0 NOT DUP3 EQ ISZERO PUSH2 0x1A6F JUMPI PUSH2 0x1A6F PUSH2 0x1A8A JUMP JUMPDEST POP PUSH1 0x1 ADD SWAP1 JUMP JUMPDEST PUSH1 0x0 DUP3 PUSH2 0x1A85 JUMPI PUSH2 0x1A85 PUSH2 0x1AA0 JUMP JUMPDEST POP MOD SWAP1 JUMP JUMPDEST PUSH4 0x4E487B71 PUSH1 0xE0 SHL PUSH1 0x0 MSTORE PUSH1 0x11 PUSH1 0x4 MSTORE PUSH1 0x24 PUSH1 0x0 REVERT JUMPDEST PUSH4 0x4E487B71 PUSH1 0xE0 SHL PUSH1 0x0 MSTORE PUSH1 0x12 PUSH1 0x4 MSTORE PUSH1 0x24 PUSH1 0x0 REVERT JUMPDEST PUSH4 0x4E487B71 PUSH1 0xE0 SHL PUSH1 0x0 MSTORE PUSH1 0x41 PUSH1 0x4 MSTORE PUSH1 0x24 PUSH1 0x0 REVERT JUMPDEST DUP1 ISZERO ISZERO DUP2 EQ PUSH2 0x1ADA JUMPI PUSH1 0x0 DUP1 REVERT JUMPDEST POP JUMP JUMPDEST PUSH1 0x1 PUSH1 0x1 PUSH1 0xE0 SHL SUB NOT DUP2 AND DUP2 EQ PUSH2 0x1ADA JUMPI PUSH1 0x0 DUP1 REVERT INVALID LOG2 PUSH5 0x6970667358 0x22 SLT KECCAK256 ORIGIN CODESIZE SLOAD SIGNEXTEND SWAP15 LOG4 0xA6 0x21 0x49 PUSH8 0x8F882C3D513C3C97 0xE4 SLOAD 0xF9 CODESIZE PUSH22 0xC23D3EB92DD0D252064736F6C634300080000330000 "
        },
        "methodIdentifiers": {
          "approve(address,uint256)": "095ea7b3",
          "balanceOf(address)": "70a08231",
          "createAdventureNFT(string)": "9dc79f80",
          "forSale(bytes32)": "ae374b99",
          "getApproved(uint256)": "081812fc",
          "isApprovedForAll(address,address)": "e985e9c5",
          "name()": "06fdde03",
          "ownerOf(uint256)": "6352211e",
          "playerAmounts(address)": "9d66928e",
          "safeTransferFrom(address,address,uint256)": "42842e0e",
          "safeTransferFrom(address,address,uint256,bytes)": "b88d4fde",
          "setApprovalForAll(address,bool)": "a22cb465",
          "supportsInterface(bytes4)": "01ffc9a7",
          "symbol()": "95d89b41",
          "tokenURI(uint256)": "c87b56dd",
          "transferFrom(address,address,uint256)": "23b872dd",
          "transferTokens(uint256)": "fd9a4e61",
          "uriToTokenId(bytes32)": "b7416f2a"
        }
      }
    }
  }
}