{
  "_format": "hh-sol-artifact-1",
  "contractName": "adventureNFT",
  "sourceName": "contracts/adventureNFT.sol",
  "abi": [
    {
      "inputs": [
        {
          "internalType": "bytes32[]",
          "name": "assetsForSale",
          "type": "bytes32[]"
        },
        {
          "internalType": "address",
          "name": "catnipAddress",
          "type": "address"
        }
      ],
      "stateMutability": "nonpayable",
      "type": "constructor"
    },
    {
      "anonymous": false,
      "inputs": [
        {
          "indexed": true,
          "internalType": "address",
          "name": "owner",
          "type": "address"
        },
        {
          "indexed": true,
          "internalType": "address",
          "name": "approved",
          "type": "address"
        },
        {
          "indexed": true,
          "internalType": "uint256",
          "name": "tokenId",
          "type": "uint256"
        }
      ],
      "name": "Approval",
      "type": "event"
    },
    {
      "anonymous": false,
      "inputs": [
        {
          "indexed": true,
          "internalType": "address",
          "name": "owner",
          "type": "address"
        },
        {
          "indexed": true,
          "internalType": "address",
          "name": "operator",
          "type": "address"
        },
        {
          "indexed": false,
          "internalType": "bool",
          "name": "approved",
          "type": "bool"
        }
      ],
      "name": "ApprovalForAll",
      "type": "event"
    },
    {
      "anonymous": false,
      "inputs": [
        {
          "indexed": true,
          "internalType": "address",
          "name": "from",
          "type": "address"
        },
        {
          "indexed": true,
          "internalType": "address",
          "name": "to",
          "type": "address"
        },
        {
          "indexed": true,
          "internalType": "uint256",
          "name": "tokenId",
          "type": "uint256"
        }
      ],
      "name": "Transfer",
      "type": "event"
    },
    {
      "inputs": [
        {
          "internalType": "address",
          "name": "to",
          "type": "address"
        },
        {
          "internalType": "uint256",
          "name": "tokenId",
          "type": "uint256"
        }
      ],
      "name": "approve",
      "outputs": [],
      "stateMutability": "nonpayable",
      "type": "function"
    },
    {
      "inputs": [
        {
          "internalType": "address",
          "name": "owner",
          "type": "address"
        }
      ],
      "name": "balanceOf",
      "outputs": [
        {
          "internalType": "uint256",
          "name": "",
          "type": "uint256"
        }
      ],
      "stateMutability": "view",
      "type": "function"
    },
    {
      "inputs": [
        {
          "internalType": "string",
          "name": "tokenURI",
          "type": "string"
        }
      ],
      "name": "createAdventureNFT",
      "outputs": [
        {
          "internalType": "uint256",
          "name": "",
          "type": "uint256"
        }
      ],
      "stateMutability": "nonpayable",
      "type": "function"
    },
    {
      "inputs": [
        {
          "internalType": "bytes32",
          "name": "",
          "type": "bytes32"
        }
      ],
      "name": "forSale",
      "outputs": [
        {
          "internalType": "bool",
          "name": "",
          "type": "bool"
        }
      ],
      "stateMutability": "view",
      "type": "function"
    },
    {
      "inputs": [
        {
          "internalType": "uint256",
          "name": "tokenId",
          "type": "uint256"
        }
      ],
      "name": "getApproved",
      "outputs": [
        {
          "internalType": "address",
          "name": "",
          "type": "address"
        }
      ],
      "stateMutability": "view",
      "type": "function"
    },
    {
      "inputs": [
        {
          "internalType": "address",
          "name": "owner",
          "type": "address"
        },
        {
          "internalType": "address",
          "name": "operator",
          "type": "address"
        }
      ],
      "name": "isApprovedForAll",
      "outputs": [
        {
          "internalType": "bool",
          "name": "",
          "type": "bool"
        }
      ],
      "stateMutability": "view",
      "type": "function"
    },
    {
      "inputs": [],
      "name": "name",
      "outputs": [
        {
          "internalType": "string",
          "name": "",
          "type": "string"
        }
      ],
      "stateMutability": "view",
      "type": "function"
    },
    {
      "inputs": [
        {
          "internalType": "uint256",
          "name": "tokenId",
          "type": "uint256"
        }
      ],
      "name": "ownerOf",
      "outputs": [
        {
          "internalType": "address",
          "name": "",
          "type": "address"
        }
      ],
      "stateMutability": "view",
      "type": "function"
    },
    {
      "inputs": [
        {
          "internalType": "address",
          "name": "",
          "type": "address"
        }
      ],
      "name": "playerAmounts",
      "outputs": [
        {
          "internalType": "uint256",
          "name": "",
          "type": "uint256"
        }
      ],
      "stateMutability": "view",
      "type": "function"
    },
    {
      "inputs": [
        {
          "internalType": "address",
          "name": "from",
          "type": "address"
        },
        {
          "internalType": "address",
          "name": "to",
          "type": "address"
        },
        {
          "internalType": "uint256",
          "name": "tokenId",
          "type": "uint256"
        }
      ],
      "name": "safeTransferFrom",
      "outputs": [],
      "stateMutability": "nonpayable",
      "type": "function"
    },
    {
      "inputs": [
        {
          "internalType": "address",
          "name": "from",
          "type": "address"
        },
        {
          "internalType": "address",
          "name": "to",
          "type": "address"
        },
        {
          "internalType": "uint256",
          "name": "tokenId",
          "type": "uint256"
        },
        {
          "internalType": "bytes",
          "name": "_data",
          "type": "bytes"
        }
      ],
      "name": "safeTransferFrom",
      "outputs": [],
      "stateMutability": "nonpayable",
      "type": "function"
    },
    {
      "inputs": [
        {
          "internalType": "address",
          "name": "operator",
          "type": "address"
        },
        {
          "internalType": "bool",
          "name": "approved",
          "type": "bool"
        }
      ],
      "name": "setApprovalForAll",
      "outputs": [],
      "stateMutability": "nonpayable",
      "type": "function"
    },
    {
      "inputs": [
        {
          "internalType": "bytes4",
          "name": "interfaceId",
          "type": "bytes4"
        }
      ],
      "name": "supportsInterface",
      "outputs": [
        {
          "internalType": "bool",
          "name": "",
          "type": "bool"
        }
      ],
      "stateMutability": "view",
      "type": "function"
    },
    {
      "inputs": [],
      "name": "symbol",
      "outputs": [
        {
          "internalType": "string",
          "name": "",
          "type": "string"
        }
      ],
      "stateMutability": "view",
      "type": "function"
    },
    {
      "inputs": [
        {
          "internalType": "uint256",
          "name": "tokenId",
          "type": "uint256"
        }
      ],
      "name": "tokenURI",
      "outputs": [
        {
          "internalType": "string",
          "name": "",
          "type": "string"
        }
      ],
      "stateMutability": "view",
      "type": "function"
    },
    {
      "inputs": [
        {
          "internalType": "address",
          "name": "from",
          "type": "address"
        },
        {
          "internalType": "address",
          "name": "to",
          "type": "address"
        },
        {
          "internalType": "uint256",
          "name": "tokenId",
          "type": "uint256"
        }
      ],
      "name": "transferFrom",
      "outputs": [],
      "stateMutability": "nonpayable",
      "type": "function"
    },
    {
      "inputs": [
        {
          "internalType": "uint256",
          "name": "amount",
          "type": "uint256"
        }
      ],
      "name": "transferTokens",
      "outputs": [
        {
          "internalType": "uint256",
          "name": "",
          "type": "uint256"
        }
      ],
      "stateMutability": "nonpayable",
      "type": "function"
    },
    {
      "inputs": [
        {
          "internalType": "bytes32",
          "name": "",
          "type": "bytes32"
        }
      ],
      "name": "uriToTokenId",
      "outputs": [
        {
          "internalType": "uint256",
          "name": "",
          "type": "uint256"
        }
      ],
      "stateMutability": "view",
      "type": "function"
    }
  ],
  "bytecode": "0x60806040523480156200001157600080fd5b5060405162001ecb38038062001ecb83398101604081905262000034916200023e565b604080518082018252600c81526b18591d995b9d1d5c9953919560a21b6020808301918252835180850190945260048452631053919560e21b90840152815191929162000084916000916200017b565b5080516200009a9060019060208401906200017b565b50620000a891505062000144565b50600780546001600160a01b0319166001600160a01b03831617905560005b82518110156200013b576001600a6000858481518110620000f857634e487b7160e01b600052603260045260246000fd5b6020026020010151815260200190815260200160002060006101000a81548160ff0219169083151502179055508080620001329062000354565b915050620000c7565b50505062000392565b60408051808201909152601581527f68747470733a2f2f697066732e696f2f697066732f0000000000000000000000602082015290565b828054620001899062000317565b90600052602060002090601f016020900481019282620001ad5760008555620001f8565b82601f10620001c857805160ff1916838001178555620001f8565b82800160010185558215620001f8579182015b82811115620001f8578251825591602001919060010190620001db565b50620002069291506200020a565b5090565b5b808211156200020657600081556001016200020b565b80516001600160a01b03811681146200023957600080fd5b919050565b6000806040838503121562000251578182fd5b82516001600160401b038082111562000268578384fd5b818501915085601f8301126200027c578384fd5b81516020828211156200029357620002936200037c565b80820260405182828201018181108682111715620002b557620002b56200037c565b604052838152828101945085830182870184018b1015620002d4578889fd5b8896505b84871015620002f8578051865260019690960195948301948301620002d8565b5096506200030a905087820162000221565b9450505050509250929050565b6002810460018216806200032c57607f821691505b602082108114156200034e57634e487b7160e01b600052602260045260246000fd5b50919050565b60006000198214156200037557634e487b7160e01b81526011600452602481fd5b5060010190565b634e487b7160e01b600052604160045260246000fd5b611b2980620003a26000396000f3fe608060405234801561001057600080fd5b50600436106101165760003560e01c80639d66928e116100a2578063b7416f2a11610071578063b7416f2a1461023b578063b88d4fde1461024e578063c87b56dd14610261578063e985e9c514610274578063fd9a4e611461028757610116565b80639d66928e146101ef5780639dc79f8014610202578063a22cb46514610215578063ae374b991461022857610116565b806323b872dd116100e957806323b872dd1461018e57806342842e0e146101a15780636352211e146101b457806370a08231146101c757806395d89b41146101e757610116565b806301ffc9a71461011b57806306fdde0314610144578063081812fc14610159578063095ea7b314610179575b600080fd5b61012e61012936600461131c565b61029a565b60405161013b9190611486565b60405180910390f35b61014c6102e2565b60405161013b9190611491565b61016c610167366004611304565b610374565b60405161013b9190611411565b61018c6101873660046112bf565b6103c0565b005b61018c61019c3660046111d5565b610458565b61018c6101af3660046111d5565b610490565b61016c6101c2366004611304565b6104ab565b6101da6101d5366004611189565b6104e0565b60405161013b91906119a8565b61014c610524565b6101da6101fd366004611189565b610533565b6101da610210366004611354565b610545565b61018c610223366004611289565b610615565b61012e610236366004611304565b6106e3565b6101da610249366004611304565b6106f8565b61018c61025c366004611210565b61070a565b61014c61026f366004611304565b610749565b61012e6102823660046111a3565b61086a565b6101da610295366004611304565b610898565b60006001600160e01b031982166380ac58cd60e01b14806102cb57506001600160e01b03198216635b5e139f60e01b145b806102da57506102da82610975565b90505b919050565b6060600080546102f190611a20565b80601f016020809104026020016040519081016040528092919081815260200182805461031d90611a20565b801561036a5780601f1061033f5761010080835404028352916020019161036a565b820191906000526020600020905b81548152906001019060200180831161034d57829003601f168201915b5050505050905090565b600061037f8261098e565b6103a45760405162461bcd60e51b815260040161039b906117e3565b60405180910390fd5b506000908152600460205260409020546001600160a01b031690565b60006103cb826104ab565b9050806001600160a01b0316836001600160a01b031614156103ff5760405162461bcd60e51b815260040161039b906118ed565b806001600160a01b03166104116109ab565b6001600160a01b0316148061042d575061042d816102826109ab565b6104495760405162461bcd60e51b815260040161039b9061161f565b61045383836109af565b505050565b6104696104636109ab565b82610a1d565b6104855760405162461bcd60e51b815260040161039b9061192e565b610453838383610a9a565b6104538383836040518060200160405280600081525061070a565b6000818152600260205260408120546001600160a01b0316806102da5760405162461bcd60e51b815260040161039b906116c6565b60006001600160a01b0382166105085760405162461bcd60e51b815260040161039b9061167c565b506001600160a01b031660009081526003602052604090205490565b6060600180546102f190611a20565b60096020526000908152604090205481565b6000808260405160200161055991906113c6565b60408051601f1981840301815291815281516020928301206000818152600a90935291205490915060ff166105a05760405162461bcd60e51b815260040161039b9061182f565b3360009081526009602052604090205461271011156105d15760405162461bcd60e51b815260040161039b906114f6565b6105db6008610bc7565b60006105e76008610bd0565b90506105f33382610bd4565b6105fd8185610bf2565b6000918252600b602052604090912081905592915050565b61061d6109ab565b6001600160a01b0316826001600160a01b0316141561064e5760405162461bcd60e51b815260040161039b9061159c565b806005600061065b6109ab565b6001600160a01b03908116825260208083019390935260409182016000908120918716808252919093529120805460ff19169215159290921790915561069f6109ab565b6001600160a01b03167f17307eab39ab6107e8899845ad3d59bd9653f200f220920489ca2b5937696c31836040516106d79190611486565b60405180910390a35050565b600a6020526000908152604090205460ff1681565b600b6020526000908152604090205481565b61071b6107156109ab565b83610a1d565b6107375760405162461bcd60e51b815260040161039b9061192e565b61074384848484610c36565b50505050565b60606107548261098e565b6107705760405162461bcd60e51b815260040161039b90611792565b6000828152600660205260408120805461078990611a20565b80601f01602080910402602001604051908101604052809291908181526020018280546107b590611a20565b80156108025780601f106107d757610100808354040283529160200191610802565b820191906000526020600020905b8154815290600101906020018083116107e557829003601f168201915b505050505090506000610813610c69565b9050805160001415610827575090506102dd565b8151156108595780826040516020016108419291906113e2565b604051602081830303815290604052925050506102dd565b61086284610c98565b949350505050565b6001600160a01b03918216600090815260056020908152604080832093909416825291909152205460ff1690565b6007546040516323b872dd60e01b81526000916001600160a01b0316906323b872dd906108cd90339030908790600401611425565b602060405180830381600087803b1580156108e757600080fd5b505af11580156108fb573d6000803e3d6000fd5b505050506040513d601f19601f8201168201806040525081019061091f91906112e8565b61093b5760405162461bcd60e51b815260040161039b9061197f565b336000908152600960205260408120805484929061095a9084906119b1565b90915550503360009081526009602052604090205492915050565b6001600160e01b031981166301ffc9a760e01b14919050565b6000908152600260205260409020546001600160a01b0316151590565b3390565b600081815260046020526040902080546001600160a01b0319166001600160a01b03841690811790915581906109e4826104ab565b6001600160a01b03167f8c5be1e5ebec7d5bd14f71427d1e84f3dd0314c0f7b2291e5b200ac8c7c3b92560405160405180910390a45050565b6000610a288261098e565b610a445760405162461bcd60e51b815260040161039b906115d3565b6000610a4f836104ab565b9050806001600160a01b0316846001600160a01b03161480610a8a5750836001600160a01b0316610a7f84610374565b6001600160a01b0316145b806108625750610862818561086a565b826001600160a01b0316610aad826104ab565b6001600160a01b031614610ad35760405162461bcd60e51b815260040161039b90611855565b6001600160a01b038216610af95760405162461bcd60e51b815260040161039b90611558565b610b04838383610453565b610b0f6000826109af565b6001600160a01b0383166000908152600360205260408120805460019290610b389084906119dd565b90915550506001600160a01b0382166000908152600360205260408120805460019290610b669084906119b1565b909155505060008181526002602052604080822080546001600160a01b0319166001600160a01b0386811691821790925591518493918716917fddf252ad1be2c89b69c2b068fc378daa952ba7f163c4a11628f55a4df523b3ef91a4505050565b80546001019055565b5490565b610bee828260405180602001604052806000815250610d1b565b5050565b610bfb8261098e565b610c175760405162461bcd60e51b815260040161039b9061170f565b6000828152600660209081526040909120825161045392840190611069565b610c41848484610a9a565b610c4d84848484610d4e565b6107435760405162461bcd60e51b815260040161039b906114a4565b60408051808201909152601581527468747470733a2f2f697066732e696f2f697066732f60581b602082015290565b6060610ca38261098e565b610cbf5760405162461bcd60e51b815260040161039b9061189e565b6000610cc9610c69565b90506000815111610ce95760405180602001604052806000815250610d14565b80610cf384610e69565b604051602001610d049291906113e2565b6040516020818303038152906040525b9392505050565b610d258383610f84565b610d326000848484610d4e565b6104535760405162461bcd60e51b815260040161039b906114a4565b6000610d62846001600160a01b0316611063565b15610e5e57836001600160a01b031663150b7a02610d7e6109ab565b8786866040518563ffffffff1660e01b8152600401610da09493929190611449565b602060405180830381600087803b158015610dba57600080fd5b505af1925050508015610dea575060408051601f3d908101601f19168201909252610de791810190611338565b60015b610e44573d808015610e18576040519150601f19603f3d011682016040523d82523d6000602084013e610e1d565b606091505b508051610e3c5760405162461bcd60e51b815260040161039b906114a4565b805181602001fd5b6001600160e01b031916630a85bd0160e11b149050610862565b506001949350505050565b606081610e8e57506040805180820190915260018152600360fc1b60208201526102dd565b8160005b8115610eb85780610ea281611a5b565b9150610eb19050600a836119c9565b9150610e92565b60008167ffffffffffffffff811115610ee157634e487b7160e01b600052604160045260246000fd5b6040519080825280601f01601f191660200182016040528015610f0b576020820181803683370190505b5090505b841561086257610f206001836119dd565b9150610f2d600a86611a76565b610f389060306119b1565b60f81b818381518110610f5b57634e487b7160e01b600052603260045260246000fd5b60200101906001600160f81b031916908160001a905350610f7d600a866119c9565b9450610f0f565b6001600160a01b038216610faa5760405162461bcd60e51b815260040161039b9061175d565b610fb38161098e565b15610fd05760405162461bcd60e51b815260040161039b90611521565b610fdc60008383610453565b6001600160a01b03821660009081526003602052604081208054600192906110059084906119b1565b909155505060008181526002602052604080822080546001600160a01b0319166001600160a01b03861690811790915590518392907fddf252ad1be2c89b69c2b068fc378daa952ba7f163c4a11628f55a4df523b3ef908290a45050565b3b151590565b82805461107590611a20565b90600052602060002090601f01602090048101928261109757600085556110dd565b82601f106110b057805160ff19168380011785556110dd565b828001600101855582156110dd579182015b828111156110dd5782518255916020019190600101906110c2565b506110e99291506110ed565b5090565b5b808211156110e957600081556001016110ee565b600067ffffffffffffffff8084111561111d5761111d611ab6565b604051601f8501601f19168101602001828111828210171561114157611141611ab6565b60405284815291508183850186101561115957600080fd5b8484602083013760006020868301015250509392505050565b80356001600160a01b03811681146102dd57600080fd5b60006020828403121561119a578081fd5b610d1482611172565b600080604083850312156111b5578081fd5b6111be83611172565b91506111cc60208401611172565b90509250929050565b6000806000606084860312156111e9578081fd5b6111f284611172565b925061120060208501611172565b9150604084013590509250925092565b60008060008060808587031215611225578081fd5b61122e85611172565b935061123c60208601611172565b925060408501359150606085013567ffffffffffffffff81111561125e578182fd5b8501601f8101871361126e578182fd5b61127d87823560208401611102565b91505092959194509250565b6000806040838503121561129b578182fd5b6112a483611172565b915060208301356112b481611acc565b809150509250929050565b600080604083850312156112d1578182fd5b6112da83611172565b946020939093013593505050565b6000602082840312156112f9578081fd5b8151610d1481611acc565b600060208284031215611315578081fd5b5035919050565b60006020828403121561132d578081fd5b8135610d1481611add565b600060208284031215611349578081fd5b8151610d1481611add565b600060208284031215611365578081fd5b813567ffffffffffffffff81111561137b578182fd5b8201601f8101841361138b578182fd5b61086284823560208401611102565b600081518084526113b28160208601602086016119f4565b601f01601f19169290920160200192915050565b600082516113d88184602087016119f4565b9190910192915050565b600083516113f48184602088016119f4565b8351908301906114088183602088016119f4565b01949350505050565b6001600160a01b0391909116815260200190565b6001600160a01b039384168152919092166020820152604081019190915260600190565b6001600160a01b038581168252841660208201526040810183905260806060820181905260009061147c9083018461139a565b9695505050505050565b901515815260200190565b600060208252610d14602083018461139a565b60208082526032908201527f4552433732313a207472616e7366657220746f206e6f6e20455243373231526560408201527131b2b4bb32b91034b6b83632b6b2b73a32b960711b606082015260800190565b602080825260119082015270494e414445515541544520544f4b454e5360781b604082015260600190565b6020808252601c908201527f4552433732313a20746f6b656e20616c7265616479206d696e74656400000000604082015260600190565b60208082526024908201527f4552433732313a207472616e7366657220746f20746865207a65726f206164646040820152637265737360e01b606082015260800190565b60208082526019908201527f4552433732313a20617070726f766520746f2063616c6c657200000000000000604082015260600190565b6020808252602c908201527f4552433732313a206f70657261746f7220717565727920666f72206e6f6e657860408201526b34b9ba32b73a103a37b5b2b760a11b606082015260800190565b60208082526038908201527f4552433732313a20617070726f76652063616c6c6572206973206e6f74206f7760408201527f6e6572206e6f7220617070726f76656420666f7220616c6c0000000000000000606082015260800190565b6020808252602a908201527f4552433732313a2062616c616e636520717565727920666f7220746865207a65604082015269726f206164647265737360b01b606082015260800190565b60208082526029908201527f4552433732313a206f776e657220717565727920666f72206e6f6e657869737460408201526832b73a103a37b5b2b760b91b606082015260800190565b6020808252602e908201527f45524337323155524953746f726167653a2055524920736574206f66206e6f6e60408201526d32bc34b9ba32b73a103a37b5b2b760911b606082015260800190565b6020808252818101527f4552433732313a206d696e7420746f20746865207a65726f2061646472657373604082015260600190565b60208082526031908201527f45524337323155524953746f726167653a2055524920717565727920666f72206040820152703737b732bc34b9ba32b73a103a37b5b2b760791b606082015260800190565b6020808252602c908201527f4552433732313a20617070726f76656420717565727920666f72206e6f6e657860408201526b34b9ba32b73a103a37b5b2b760a11b606082015260800190565b6020808252600c908201526b4e4f5420464f522053414c4560a01b604082015260600190565b60208082526029908201527f4552433732313a207472616e73666572206f6620746f6b656e2074686174206960408201526839903737ba1037bbb760b91b606082015260800190565b6020808252602f908201527f4552433732314d657461646174613a2055524920717565727920666f72206e6f60408201526e3732bc34b9ba32b73a103a37b5b2b760891b606082015260800190565b60208082526021908201527f4552433732313a20617070726f76616c20746f2063757272656e74206f776e656040820152603960f91b606082015260800190565b60208082526031908201527f4552433732313a207472616e736665722063616c6c6572206973206e6f74206f6040820152701ddb995c881b9bdc88185c1c1c9bdd9959607a1b606082015260800190565b6020808252600f908201526e1514905394d1915488119052531151608a1b604082015260600190565b90815260200190565b600082198211156119c4576119c4611a8a565b500190565b6000826119d8576119d8611aa0565b500490565b6000828210156119ef576119ef611a8a565b500390565b60005b83811015611a0f5781810151838201526020016119f7565b838111156107435750506000910152565b600281046001821680611a3457607f821691505b60208210811415611a5557634e487b7160e01b600052602260045260246000fd5b50919050565b6000600019821415611a6f57611a6f611a8a565b5060010190565b600082611a8557611a85611aa0565b500690565b634e487b7160e01b600052601160045260246000fd5b634e487b7160e01b600052601260045260246000fd5b634e487b7160e01b600052604160045260246000fd5b8015158114611ada57600080fd5b50565b6001600160e01b031981168114611ada57600080fdfea26469706673582212203238540b9ea4a62149678f882c3d513c3c97e454f938750c23d3eb92dd0d252064736f6c63430008000033",
  "linkReferences": {},
  "deployedLinkReferences": {}
}