{
  "_format": "hh-sol-artifact-1",
  "contractName": "adventureNFT",
  "sourceName": "contracts/adventureNFT.sol",
  "abi": [
    {
      "inputs": [
        {
          "internalType": "bytes32[]",
          "name": "assetsForSale",
          "type": "bytes32[]"
        },
        {
          "internalType": "address",
          "name": "catnipAddress",
          "type": "address"
        }
      ],
      "stateMutability": "nonpayable",
      "type": "constructor"
    },
    {
      "anonymous": false,
      "inputs": [
        {
          "indexed": true,
          "internalType": "address",
          "name": "owner",
          "type": "address"
        },
        {
          "indexed": true,
          "internalType": "address",
          "name": "approved",
          "type": "address"
        },
        {
          "indexed": true,
          "internalType": "uint256",
          "name": "tokenId",
          "type": "uint256"
        }
      ],
      "name": "Approval",
      "type": "event"
    },
    {
      "anonymous": false,
      "inputs": [
        {
          "indexed": true,
          "internalType": "address",
          "name": "owner",
          "type": "address"
        },
        {
          "indexed": true,
          "internalType": "address",
          "name": "operator",
          "type": "address"
        },
        {
          "indexed": false,
          "internalType": "bool",
          "name": "approved",
          "type": "bool"
        }
      ],
      "name": "ApprovalForAll",
      "type": "event"
    },
    {
      "anonymous": false,
      "inputs": [
        {
          "indexed": true,
          "internalType": "address",
          "name": "from",
          "type": "address"
        },
        {
          "indexed": true,
          "internalType": "address",
          "name": "to",
          "type": "address"
        },
        {
          "indexed": true,
          "internalType": "uint256",
          "name": "tokenId",
          "type": "uint256"
        }
      ],
      "name": "Transfer",
      "type": "event"
    },
    {
      "inputs": [
        {
          "internalType": "address",
          "name": "to",
          "type": "address"
        },
        {
          "internalType": "uint256",
          "name": "tokenId",
          "type": "uint256"
        }
      ],
      "name": "approve",
      "outputs": [],
      "stateMutability": "nonpayable",
      "type": "function"
    },
    {
      "inputs": [
        {
          "internalType": "address",
          "name": "owner",
          "type": "address"
        }
      ],
      "name": "balanceOf",
      "outputs": [
        {
          "internalType": "uint256",
          "name": "",
          "type": "uint256"
        }
      ],
      "stateMutability": "view",
      "type": "function"
    },
    {
      "inputs": [
        {
          "internalType": "string",
          "name": "tokenURI",
          "type": "string"
        }
      ],
      "name": "createAdventureNFT",
      "outputs": [
        {
          "internalType": "uint256",
          "name": "",
          "type": "uint256"
        }
      ],
      "stateMutability": "nonpayable",
      "type": "function"
    },
    {
      "inputs": [
        {
          "internalType": "bytes32",
          "name": "",
          "type": "bytes32"
        }
      ],
      "name": "forSale",
      "outputs": [
        {
          "internalType": "bool",
          "name": "",
          "type": "bool"
        }
      ],
      "stateMutability": "view",
      "type": "function"
    },
    {
      "inputs": [
        {
          "internalType": "uint256",
          "name": "tokenId",
          "type": "uint256"
        }
      ],
      "name": "getApproved",
      "outputs": [
        {
          "internalType": "address",
          "name": "",
          "type": "address"
        }
      ],
      "stateMutability": "view",
      "type": "function"
    },
    {
      "inputs": [
        {
          "internalType": "address",
          "name": "owner",
          "type": "address"
        },
        {
          "internalType": "address",
          "name": "operator",
          "type": "address"
        }
      ],
      "name": "isApprovedForAll",
      "outputs": [
        {
          "internalType": "bool",
          "name": "",
          "type": "bool"
        }
      ],
      "stateMutability": "view",
      "type": "function"
    },
    {
      "inputs": [],
      "name": "name",
      "outputs": [
        {
          "internalType": "string",
          "name": "",
          "type": "string"
        }
      ],
      "stateMutability": "view",
      "type": "function"
    },
    {
      "inputs": [
        {
          "internalType": "uint256",
          "name": "tokenId",
          "type": "uint256"
        }
      ],
      "name": "ownerOf",
      "outputs": [
        {
          "internalType": "address",
          "name": "",
          "type": "address"
        }
      ],
      "stateMutability": "view",
      "type": "function"
    },
    {
      "inputs": [
        {
          "internalType": "address",
          "name": "",
          "type": "address"
        }
      ],
      "name": "playerAmounts",
      "outputs": [
        {
          "internalType": "uint256",
          "name": "",
          "type": "uint256"
        }
      ],
      "stateMutability": "view",
      "type": "function"
    },
    {
      "inputs": [
        {
          "internalType": "address",
          "name": "from",
          "type": "address"
        },
        {
          "internalType": "address",
          "name": "to",
          "type": "address"
        },
        {
          "internalType": "uint256",
          "name": "tokenId",
          "type": "uint256"
        }
      ],
      "name": "safeTransferFrom",
      "outputs": [],
      "stateMutability": "nonpayable",
      "type": "function"
    },
    {
      "inputs": [
        {
          "internalType": "address",
          "name": "from",
          "type": "address"
        },
        {
          "internalType": "address",
          "name": "to",
          "type": "address"
        },
        {
          "internalType": "uint256",
          "name": "tokenId",
          "type": "uint256"
        },
        {
          "internalType": "bytes",
          "name": "_data",
          "type": "bytes"
        }
      ],
      "name": "safeTransferFrom",
      "outputs": [],
      "stateMutability": "nonpayable",
      "type": "function"
    },
    {
      "inputs": [
        {
          "internalType": "address",
          "name": "operator",
          "type": "address"
        },
        {
          "internalType": "bool",
          "name": "approved",
          "type": "bool"
        }
      ],
      "name": "setApprovalForAll",
      "outputs": [],
      "stateMutability": "nonpayable",
      "type": "function"
    },
    {
      "inputs": [
        {
          "internalType": "bytes4",
          "name": "interfaceId",
          "type": "bytes4"
        }
      ],
      "name": "supportsInterface",
      "outputs": [
        {
          "internalType": "bool",
          "name": "",
          "type": "bool"
        }
      ],
      "stateMutability": "view",
      "type": "function"
    },
    {
      "inputs": [],
      "name": "symbol",
      "outputs": [
        {
          "internalType": "string",
          "name": "",
          "type": "string"
        }
      ],
      "stateMutability": "view",
      "type": "function"
    },
    {
      "inputs": [
        {
          "internalType": "uint256",
          "name": "tokenId",
          "type": "uint256"
        }
      ],
      "name": "tokenURI",
      "outputs": [
        {
          "internalType": "string",
          "name": "",
          "type": "string"
        }
      ],
      "stateMutability": "view",
      "type": "function"
    },
    {
      "inputs": [
        {
          "internalType": "address",
          "name": "from",
          "type": "address"
        },
        {
          "internalType": "address",
          "name": "to",
          "type": "address"
        },
        {
          "internalType": "uint256",
          "name": "tokenId",
          "type": "uint256"
        }
      ],
      "name": "transferFrom",
      "outputs": [],
      "stateMutability": "nonpayable",
      "type": "function"
    },
    {
      "inputs": [
        {
          "internalType": "uint256",
          "name": "amount",
          "type": "uint256"
        }
      ],
      "name": "transferTokens",
      "outputs": [
        {
          "internalType": "uint256",
          "name": "",
          "type": "uint256"
        }
      ],
      "stateMutability": "nonpayable",
      "type": "function"
    },
    {
      "inputs": [
        {
          "internalType": "bytes32",
          "name": "",
          "type": "bytes32"
        }
      ],
      "name": "uriToTokenId",
      "outputs": [
        {
          "internalType": "uint256",
          "name": "",
          "type": "uint256"
        }
      ],
      "stateMutability": "view",
      "type": "function"
    }
  ],
  "bytecode": "0x60806040523480156200001157600080fd5b50604051620036e6380380620036e683398181016040528101906200003791906200037f565b6040518060400160405280600c81526020017f616476656e747572654e465400000000000000000000000000000000000000008152506040518060400160405280600481526020017f414e4654000000000000000000000000000000000000000000000000000000008152508160009080519060200190620000bb929190620001ff565b508060019080519060200190620000d4929190620001ff565b505050620000e7620001c260201b60201c565b5080600760006101000a81548173ffffffffffffffffffffffffffffffffffffffff021916908373ffffffffffffffffffffffffffffffffffffffff16021790555060005b8251811015620001b9576001600a600085848151811062000176577f4e487b7100000000000000000000000000000000000000000000000000000000600052603260045260246000fd5b6020026020010151815260200190815260200160002060006101000a81548160ff0219169083151502179055508080620001b090620004ba565b9150506200012c565b505050620005c9565b60606040518060400160405280601581526020017f68747470733a2f2f697066732e696f2f697066732f0000000000000000000000815250905090565b8280546200020d9062000484565b90600052602060002090601f0160209004810192826200023157600085556200027d565b82601f106200024c57805160ff19168380011785556200027d565b828001600101855582156200027d579182015b828111156200027c5782518255916020019190600101906200025f565b5b5090506200028c919062000290565b5090565b5b80821115620002ab57600081600090555060010162000291565b5090565b6000620002c6620002c0846200040d565b620003d9565b90508083825260208201905082856020860282011115620002e657600080fd5b60005b858110156200031a5781620002ff888262000368565b845260208401935060208301925050600181019050620002e9565b5050509392505050565b600081519050620003358162000595565b92915050565b600082601f8301126200034d57600080fd5b81516200035f848260208601620002af565b91505092915050565b6000815190506200037981620005af565b92915050565b600080604083850312156200039357600080fd5b600083015167ffffffffffffffff811115620003ae57600080fd5b620003bc858286016200033b565b9250506020620003cf8582860162000324565b9150509250929050565b6000604051905081810181811067ffffffffffffffff8211171562000403576200040262000566565b5b8060405250919050565b600067ffffffffffffffff8211156200042b576200042a62000566565b5b602082029050602081019050919050565b600062000449826200045a565b9050919050565b6000819050919050565b600073ffffffffffffffffffffffffffffffffffffffff82169050919050565b6000819050919050565b600060028204905060018216806200049d57607f821691505b60208210811415620004b457620004b362000537565b5b50919050565b6000620004c7826200047a565b91507fffffffffffffffffffffffffffffffffffffffffffffffffffffffffffffffff821415620004fd57620004fc62000508565b5b600182019050919050565b7f4e487b7100000000000000000000000000000000000000000000000000000000600052601160045260246000fd5b7f4e487b7100000000000000000000000000000000000000000000000000000000600052602260045260246000fd5b7f4e487b7100000000000000000000000000000000000000000000000000000000600052604160045260246000fd5b620005a0816200043c565b8114620005ac57600080fd5b50565b620005ba8162000450565b8114620005c657600080fd5b50565b61310d80620005d96000396000f3fe608060405234801561001057600080fd5b50600436106101165760003560e01c80639d66928e116100a2578063b7416f2a11610071578063b7416f2a14610317578063b88d4fde14610347578063c87b56dd14610363578063e985e9c514610393578063fd9a4e61146103c357610116565b80639d66928e1461026b5780639dc79f801461029b578063a22cb465146102cb578063ae374b99146102e757610116565b806323b872dd116100e957806323b872dd146101b557806342842e0e146101d15780636352211e146101ed57806370a082311461021d57806395d89b411461024d57610116565b806301ffc9a71461011b57806306fdde031461014b578063081812fc14610169578063095ea7b314610199575b600080fd5b610135600480360381019061013091906120d1565b6103f3565b60405161014291906129e4565b60405180910390f35b6101536104d5565b60405161016091906129ff565b60405180910390f35b610183600480360381019061017e9190612164565b610567565b6040516101909190612946565b60405180910390f35b6101b360048036038101906101ae9190612043565b6105ec565b005b6101cf60048036038101906101ca9190611f3d565b610704565b005b6101eb60048036038101906101e69190611f3d565b610764565b005b61020760048036038101906102029190612164565b610784565b6040516102149190612946565b60405180910390f35b61023760048036038101906102329190611ed8565b610836565b6040516102449190612c81565b60405180910390f35b6102556108ee565b60405161026291906129ff565b60405180910390f35b61028560048036038101906102809190611ed8565b610980565b6040516102929190612c81565b60405180910390f35b6102b560048036038101906102b09190612123565b610998565b6040516102c29190612c81565b60405180910390f35b6102e560048036038101906102e09190612007565b610af6565b005b61030160048036038101906102fc91906120a8565b610c77565b60405161030e91906129e4565b60405180910390f35b610331600480360381019061032c91906120a8565b610c97565b60405161033e9190612c81565b60405180910390f35b610361600480360381019061035c9190611f8c565b610caf565b005b61037d60048036038101906103789190612164565b610d11565b60405161038a91906129ff565b60405180910390f35b6103ad60048036038101906103a89190611f01565b610e63565b6040516103ba91906129e4565b60405180910390f35b6103dd60048036038101906103d89190612164565b610ef7565b6040516103ea9190612c81565b60405180910390f35b60007f80ac58cd000000000000000000000000000000000000000000000000000000007bffffffffffffffffffffffffffffffffffffffffffffffffffffffff1916827bffffffffffffffffffffffffffffffffffffffffffffffffffffffff191614806104be57507f5b5e139f000000000000000000000000000000000000000000000000000000007bffffffffffffffffffffffffffffffffffffffffffffffffffffffff1916827bffffffffffffffffffffffffffffffffffffffffffffffffffffffff1916145b806104ce57506104cd82611086565b5b9050919050565b6060600080546104e490612eeb565b80601f016020809104026020016040519081016040528092919081815260200182805461051090612eeb565b801561055d5780601f106105325761010080835404028352916020019161055d565b820191906000526020600020905b81548152906001019060200180831161054057829003601f168201915b5050505050905090565b6000610572826110f0565b6105b1576040517f08c379a00000000000000000000000000000000000000000000000000000000081526004016105a890612ba1565b60405180910390fd5b6004600083815260200190815260200160002060009054906101000a900473ffffffffffffffffffffffffffffffffffffffff169050919050565b60006105f782610784565b90508073ffffffffffffffffffffffffffffffffffffffff168373ffffffffffffffffffffffffffffffffffffffff161415610668576040517f08c379a000000000000000000000000000000000000000000000000000000000815260040161065f90612c21565b60405180910390fd5b8073ffffffffffffffffffffffffffffffffffffffff1661068761115c565b73ffffffffffffffffffffffffffffffffffffffff1614806106b657506106b5816106b061115c565b610e63565b5b6106f5576040517f08c379a00000000000000000000000000000000000000000000000000000000081526004016106ec90612ae1565b60405180910390fd5b6106ff8383611164565b505050565b61071561070f61115c565b8261121d565b610754576040517f08c379a000000000000000000000000000000000000000000000000000000000815260040161074b90612c41565b60405180910390fd5b61075f8383836112fb565b505050565b61077f83838360405180602001604052806000815250610caf565b505050565b6000806002600084815260200190815260200160002060009054906101000a900473ffffffffffffffffffffffffffffffffffffffff169050600073ffffffffffffffffffffffffffffffffffffffff168173ffffffffffffffffffffffffffffffffffffffff16141561082d576040517f08c379a000000000000000000000000000000000000000000000000000000000815260040161082490612b21565b60405180910390fd5b80915050919050565b60008073ffffffffffffffffffffffffffffffffffffffff168273ffffffffffffffffffffffffffffffffffffffff1614156108a7576040517f08c379a000000000000000000000000000000000000000000000000000000000815260040161089e90612b01565b60405180910390fd5b600360008373ffffffffffffffffffffffffffffffffffffffff1673ffffffffffffffffffffffffffffffffffffffff168152602001908152602001600020549050919050565b6060600180546108fd90612eeb565b80601f016020809104026020016040519081016040528092919081815260200182805461092990612eeb565b80156109765780601f1061094b57610100808354040283529160200191610976565b820191906000526020600020905b81548152906001019060200180831161095957829003601f168201915b5050505050905090565b60096020528060005260406000206000915090505481565b600080826040516020016109ac919061290b565b604051602081830303815290604052805190602001209050600a600082815260200190815260200160002060009054906101000a900460ff16610a24576040517f08c379a0000000000000000000000000000000000000000000000000000000008152600401610a1b90612bc1565b60405180910390fd5b612710600960003373ffffffffffffffffffffffffffffffffffffffff1673ffffffffffffffffffffffffffffffffffffffff168152602001908152602001600020541015610aa8576040517f08c379a0000000000000000000000000000000000000000000000000000000008152600401610a9f90612a41565b60405180910390fd5b610ab26008611557565b6000610abe600861156d565b9050610aca338261157b565b610ad48185611599565b80600b6000848152602001908152602001600020819055508092505050919050565b610afe61115c565b73ffffffffffffffffffffffffffffffffffffffff168273ffffffffffffffffffffffffffffffffffffffff161415610b6c576040517f08c379a0000000000000000000000000000000000000000000000000000000008152600401610b6390612aa1565b60405180910390fd5b8060056000610b7961115c565b73ffffffffffffffffffffffffffffffffffffffff1673ffffffffffffffffffffffffffffffffffffffff16815260200190815260200160002060008473ffffffffffffffffffffffffffffffffffffffff1673ffffffffffffffffffffffffffffffffffffffff16815260200190815260200160002060006101000a81548160ff0219169083151502179055508173ffffffffffffffffffffffffffffffffffffffff16610c2661115c565b73ffffffffffffffffffffffffffffffffffffffff167f17307eab39ab6107e8899845ad3d59bd9653f200f220920489ca2b5937696c3183604051610c6b91906129e4565b60405180910390a35050565b600a6020528060005260406000206000915054906101000a900460ff1681565b600b6020528060005260406000206000915090505481565b610cc0610cba61115c565b8361121d565b610cff576040517f08c379a0000000000000000000000000000000000000000000000000000000008152600401610cf690612c41565b60405180910390fd5b610d0b8484848461160d565b50505050565b6060610d1c826110f0565b610d5b576040517f08c379a0000000000000000000000000000000000000000000000000000000008152600401610d5290612b81565b60405180910390fd5b6000600660008481526020019081526020016000208054610d7b90612eeb565b80601f0160208091040260200160405190810160405280929190818152602001828054610da790612eeb565b8015610df45780601f10610dc957610100808354040283529160200191610df4565b820191906000526020600020905b815481529060010190602001808311610dd757829003601f168201915b505050505090506000610e05611669565b9050600081511415610e1b578192505050610e5e565b600082511115610e50578082604051602001610e38929190612922565b60405160208183030381529060405292505050610e5e565b610e59846116a6565b925050505b919050565b6000600560008473ffffffffffffffffffffffffffffffffffffffff1673ffffffffffffffffffffffffffffffffffffffff16815260200190815260200160002060008373ffffffffffffffffffffffffffffffffffffffff1673ffffffffffffffffffffffffffffffffffffffff16815260200190815260200160002060009054906101000a900460ff16905092915050565b6000600760009054906101000a900473ffffffffffffffffffffffffffffffffffffffff1673ffffffffffffffffffffffffffffffffffffffff166323b872dd3330856040518463ffffffff1660e01b8152600401610f5893929190612961565b602060405180830381600087803b158015610f7257600080fd5b505af1158015610f86573d6000803e3d6000fd5b505050506040513d601f19601f82011682018060405250810190610faa919061207f565b610fe9576040517f08c379a0000000000000000000000000000000000000000000000000000000008152600401610fe090612c61565b60405180910390fd5b81600960003373ffffffffffffffffffffffffffffffffffffffff1673ffffffffffffffffffffffffffffffffffffffff16815260200190815260200160002060008282546110389190612d70565b92505081905550600960003373ffffffffffffffffffffffffffffffffffffffff1673ffffffffffffffffffffffffffffffffffffffff168152602001908152602001600020549050919050565b60007f01ffc9a7000000000000000000000000000000000000000000000000000000007bffffffffffffffffffffffffffffffffffffffffffffffffffffffff1916827bffffffffffffffffffffffffffffffffffffffffffffffffffffffff1916149050919050565b60008073ffffffffffffffffffffffffffffffffffffffff166002600084815260200190815260200160002060009054906101000a900473ffffffffffffffffffffffffffffffffffffffff1673ffffffffffffffffffffffffffffffffffffffff1614159050919050565b600033905090565b816004600083815260200190815260200160002060006101000a81548173ffffffffffffffffffffffffffffffffffffffff021916908373ffffffffffffffffffffffffffffffffffffffff160217905550808273ffffffffffffffffffffffffffffffffffffffff166111d783610784565b73ffffffffffffffffffffffffffffffffffffffff167f8c5be1e5ebec7d5bd14f71427d1e84f3dd0314c0f7b2291e5b200ac8c7c3b92560405160405180910390a45050565b6000611228826110f0565b611267576040517f08c379a000000000000000000000000000000000000000000000000000000000815260040161125e90612ac1565b60405180910390fd5b600061127283610784565b90508073ffffffffffffffffffffffffffffffffffffffff168473ffffffffffffffffffffffffffffffffffffffff1614806112e157508373ffffffffffffffffffffffffffffffffffffffff166112c984610567565b73ffffffffffffffffffffffffffffffffffffffff16145b806112f257506112f18185610e63565b5b91505092915050565b8273ffffffffffffffffffffffffffffffffffffffff1661131b82610784565b73ffffffffffffffffffffffffffffffffffffffff1614611371576040517f08c379a000000000000000000000000000000000000000000000000000000000815260040161136890612be1565b60405180910390fd5b600073ffffffffffffffffffffffffffffffffffffffff168273ffffffffffffffffffffffffffffffffffffffff1614156113e1576040517f08c379a00000000000000000000000000000000000000000000000000000000081526004016113d890612a81565b60405180910390fd5b6113ec83838361174d565b6113f7600082611164565b6001600360008573ffffffffffffffffffffffffffffffffffffffff1673ffffffffffffffffffffffffffffffffffffffff16815260200190815260200160002060008282546114479190612df7565b925050819055506001600360008473ffffffffffffffffffffffffffffffffffffffff1673ffffffffffffffffffffffffffffffffffffffff168152602001908152602001600020600082825461149e9190612d70565b92505081905550816002600083815260200190815260200160002060006101000a81548173ffffffffffffffffffffffffffffffffffffffff021916908373ffffffffffffffffffffffffffffffffffffffff160217905550808273ffffffffffffffffffffffffffffffffffffffff168473ffffffffffffffffffffffffffffffffffffffff167fddf252ad1be2c89b69c2b068fc378daa952ba7f163c4a11628f55a4df523b3ef60405160405180910390a4505050565b6001816000016000828254019250508190555050565b600081600001549050919050565b611595828260405180602001604052806000815250611752565b5050565b6115a2826110f0565b6115e1576040517f08c379a00000000000000000000000000000000000000000000000000000000081526004016115d890612b41565b60405180910390fd5b80600660008481526020019081526020016000209080519060200190611608929190611cd2565b505050565b6116188484846112fb565b611624848484846117ad565b611663576040517f08c379a000000000000000000000000000000000000000000000000000000000815260040161165a90612a21565b60405180910390fd5b50505050565b60606040518060400160405280601581526020017f68747470733a2f2f697066732e696f2f697066732f0000000000000000000000815250905090565b60606116b1826110f0565b6116f0576040517f08c379a00000000000000000000000000000000000000000000000000000000081526004016116e790612c01565b60405180910390fd5b60006116fa611669565b9050600081511161171a5760405180602001604052806000815250611745565b8061172484611944565b604051602001611735929190612922565b6040516020818303038152906040525b915050919050565b505050565b61175c8383611af1565b61176960008484846117ad565b6117a8576040517f08c379a000000000000000000000000000000000000000000000000000000000815260040161179f90612a21565b60405180910390fd5b505050565b60006117ce8473ffffffffffffffffffffffffffffffffffffffff16611cbf565b15611937578373ffffffffffffffffffffffffffffffffffffffff1663150b7a026117f761115c565b8786866040518563ffffffff1660e01b81526004016118199493929190612998565b602060405180830381600087803b15801561183357600080fd5b505af192505050801561186457506040513d601f19601f8201168201806040525081019061186191906120fa565b60015b6118e7573d8060008114611894576040519150601f19603f3d011682016040523d82523d6000602084013e611899565b606091505b506000815114156118df576040517f08c379a00000000000000000000000000000000000000000000000000000000081526004016118d690612a21565b60405180910390fd5b805181602001fd5b63150b7a0260e01b7bffffffffffffffffffffffffffffffffffffffffffffffffffffffff1916817bffffffffffffffffffffffffffffffffffffffffffffffffffffffff19161491505061193c565b600190505b949350505050565b6060600082141561198c576040518060400160405280600181526020017f30000000000000000000000000000000000000000000000000000000000000008152509050611aec565b600082905060005b600082146119be5780806119a790612f1d565b915050600a826119b79190612dc6565b9150611994565b60008167ffffffffffffffff811115611a00577f4e487b7100000000000000000000000000000000000000000000000000000000600052604160045260246000fd5b6040519080825280601f01601f191660200182016040528015611a325781602001600182028036833780820191505090505b5090505b60008514611ae557600182611a4b9190612df7565b9150600a85611a5a9190612f66565b6030611a669190612d70565b60f81b818381518110611aa2577f4e487b7100000000000000000000000000000000000000000000000000000000600052603260045260246000fd5b60200101907effffffffffffffffffffffffffffffffffffffffffffffffffffffffffffff1916908160001a905350600a85611ade9190612dc6565b9450611a36565b8093505050505b919050565b600073ffffffffffffffffffffffffffffffffffffffff168273ffffffffffffffffffffffffffffffffffffffff161415611b61576040517f08c379a0000000000000000000000000000000000000000000000000000000008152600401611b5890612b61565b60405180910390fd5b611b6a816110f0565b15611baa576040517f08c379a0000000000000000000000000000000000000000000000000000000008152600401611ba190612a61565b60405180910390fd5b611bb66000838361174d565b6001600360008473ffffffffffffffffffffffffffffffffffffffff1673ffffffffffffffffffffffffffffffffffffffff1681526020019081526020016000206000828254611c069190612d70565b92505081905550816002600083815260200190815260200160002060006101000a81548173ffffffffffffffffffffffffffffffffffffffff021916908373ffffffffffffffffffffffffffffffffffffffff160217905550808273ffffffffffffffffffffffffffffffffffffffff16600073ffffffffffffffffffffffffffffffffffffffff167fddf252ad1be2c89b69c2b068fc378daa952ba7f163c4a11628f55a4df523b3ef60405160405180910390a45050565b600080823b905060008111915050919050565b828054611cde90612eeb565b90600052602060002090601f016020900481019282611d005760008555611d47565b82601f10611d1957805160ff1916838001178555611d47565b82800160010185558215611d47579182015b82811115611d46578251825591602001919060010190611d2b565b5b509050611d549190611d58565b5090565b5b80821115611d71576000816000905550600101611d59565b5090565b6000611d88611d8384612ccd565b612c9c565b905082815260208101848484011115611da057600080fd5b611dab848285612ea9565b509392505050565b6000611dc6611dc184612cfd565b612c9c565b905082815260208101848484011115611dde57600080fd5b611de9848285612ea9565b509392505050565b600081359050611e0081613064565b92915050565b600081359050611e158161307b565b92915050565b600081519050611e2a8161307b565b92915050565b600081359050611e3f81613092565b92915050565b600081359050611e54816130a9565b92915050565b600081519050611e69816130a9565b92915050565b600082601f830112611e8057600080fd5b8135611e90848260208601611d75565b91505092915050565b600082601f830112611eaa57600080fd5b8135611eba848260208601611db3565b91505092915050565b600081359050611ed2816130c0565b92915050565b600060208284031215611eea57600080fd5b6000611ef884828501611df1565b91505092915050565b60008060408385031215611f1457600080fd5b6000611f2285828601611df1565b9250506020611f3385828601611df1565b9150509250929050565b600080600060608486031215611f5257600080fd5b6000611f6086828701611df1565b9350506020611f7186828701611df1565b9250506040611f8286828701611ec3565b9150509250925092565b60008060008060808587031215611fa257600080fd5b6000611fb087828801611df1565b9450506020611fc187828801611df1565b9350506040611fd287828801611ec3565b925050606085013567ffffffffffffffff811115611fef57600080fd5b611ffb87828801611e6f565b91505092959194509250565b6000806040838503121561201a57600080fd5b600061202885828601611df1565b925050602061203985828601611e06565b9150509250929050565b6000806040838503121561205657600080fd5b600061206485828601611df1565b925050602061207585828601611ec3565b9150509250929050565b60006020828403121561209157600080fd5b600061209f84828501611e1b565b91505092915050565b6000602082840312156120ba57600080fd5b60006120c884828501611e30565b91505092915050565b6000602082840312156120e357600080fd5b60006120f184828501611e45565b91505092915050565b60006020828403121561210c57600080fd5b600061211a84828501611e5a565b91505092915050565b60006020828403121561213557600080fd5b600082013567ffffffffffffffff81111561214f57600080fd5b61215b84828501611e99565b91505092915050565b60006020828403121561217657600080fd5b600061218484828501611ec3565b91505092915050565b61219681612e2b565b82525050565b6121a581612e3d565b82525050565b60006121b682612d2d565b6121c08185612d43565b93506121d0818560208601612eb8565b6121d981613053565b840191505092915050565b60006121ef82612d38565b6121f98185612d54565b9350612209818560208601612eb8565b61221281613053565b840191505092915050565b600061222882612d38565b6122328185612d65565b9350612242818560208601612eb8565b80840191505092915050565b600061225b603283612d54565b91507f4552433732313a207472616e7366657220746f206e6f6e20455243373231526560008301527f63656976657220696d706c656d656e74657200000000000000000000000000006020830152604082019050919050565b60006122c1601183612d54565b91507f494e414445515541544520544f4b454e530000000000000000000000000000006000830152602082019050919050565b6000612301601c83612d54565b91507f4552433732313a20746f6b656e20616c7265616479206d696e746564000000006000830152602082019050919050565b6000612341602483612d54565b91507f4552433732313a207472616e7366657220746f20746865207a65726f2061646460008301527f72657373000000000000000000000000000000000000000000000000000000006020830152604082019050919050565b60006123a7601983612d54565b91507f4552433732313a20617070726f766520746f2063616c6c6572000000000000006000830152602082019050919050565b60006123e7602c83612d54565b91507f4552433732313a206f70657261746f7220717565727920666f72206e6f6e657860008301527f697374656e7420746f6b656e00000000000000000000000000000000000000006020830152604082019050919050565b600061244d603883612d54565b91507f4552433732313a20617070726f76652063616c6c6572206973206e6f74206f7760008301527f6e6572206e6f7220617070726f76656420666f7220616c6c00000000000000006020830152604082019050919050565b60006124b3602a83612d54565b91507f4552433732313a2062616c616e636520717565727920666f7220746865207a6560008301527f726f2061646472657373000000000000000000000000000000000000000000006020830152604082019050919050565b6000612519602983612d54565b91507f4552433732313a206f776e657220717565727920666f72206e6f6e657869737460008301527f656e7420746f6b656e00000000000000000000000000000000000000000000006020830152604082019050919050565b600061257f602e83612d54565b91507f45524337323155524953746f726167653a2055524920736574206f66206e6f6e60008301527f6578697374656e7420746f6b656e0000000000000000000000000000000000006020830152604082019050919050565b60006125e5602083612d54565b91507f4552433732313a206d696e7420746f20746865207a65726f20616464726573736000830152602082019050919050565b6000612625603183612d54565b91507f45524337323155524953746f726167653a2055524920717565727920666f722060008301527f6e6f6e6578697374656e7420746f6b656e0000000000000000000000000000006020830152604082019050919050565b600061268b602c83612d54565b91507f4552433732313a20617070726f76656420717565727920666f72206e6f6e657860008301527f697374656e7420746f6b656e00000000000000000000000000000000000000006020830152604082019050919050565b60006126f1600c83612d54565b91507f4e4f5420464f522053414c4500000000000000000000000000000000000000006000830152602082019050919050565b6000612731602983612d54565b91507f4552433732313a207472616e73666572206f6620746f6b656e2074686174206960008301527f73206e6f74206f776e00000000000000000000000000000000000000000000006020830152604082019050919050565b6000612797602f83612d54565b91507f4552433732314d657461646174613a2055524920717565727920666f72206e6f60008301527f6e6578697374656e7420746f6b656e00000000000000000000000000000000006020830152604082019050919050565b60006127fd602183612d54565b91507f4552433732313a20617070726f76616c20746f2063757272656e74206f776e6560008301527f72000000000000000000000000000000000000000000000000000000000000006020830152604082019050919050565b6000612863603183612d54565b91507f4552433732313a207472616e736665722063616c6c6572206973206e6f74206f60008301527f776e6572206e6f7220617070726f7665640000000000000000000000000000006020830152604082019050919050565b60006128c9600f83612d54565b91507f5452414e53464552204641494c454400000000000000000000000000000000006000830152602082019050919050565b61290581612e9f565b82525050565b6000612917828461221d565b915081905092915050565b600061292e828561221d565b915061293a828461221d565b91508190509392505050565b600060208201905061295b600083018461218d565b92915050565b6000606082019050612976600083018661218d565b612983602083018561218d565b61299060408301846128fc565b949350505050565b60006080820190506129ad600083018761218d565b6129ba602083018661218d565b6129c760408301856128fc565b81810360608301526129d981846121ab565b905095945050505050565b60006020820190506129f9600083018461219c565b92915050565b60006020820190508181036000830152612a1981846121e4565b905092915050565b60006020820190508181036000830152612a3a8161224e565b9050919050565b60006020820190508181036000830152612a5a816122b4565b9050919050565b60006020820190508181036000830152612a7a816122f4565b9050919050565b60006020820190508181036000830152612a9a81612334565b9050919050565b60006020820190508181036000830152612aba8161239a565b9050919050565b60006020820190508181036000830152612ada816123da565b9050919050565b60006020820190508181036000830152612afa81612440565b9050919050565b60006020820190508181036000830152612b1a816124a6565b9050919050565b60006020820190508181036000830152612b3a8161250c565b9050919050565b60006020820190508181036000830152612b5a81612572565b9050919050565b60006020820190508181036000830152612b7a816125d8565b9050919050565b60006020820190508181036000830152612b9a81612618565b9050919050565b60006020820190508181036000830152612bba8161267e565b9050919050565b60006020820190508181036000830152612bda816126e4565b9050919050565b60006020820190508181036000830152612bfa81612724565b9050919050565b60006020820190508181036000830152612c1a8161278a565b9050919050565b60006020820190508181036000830152612c3a816127f0565b9050919050565b60006020820190508181036000830152612c5a81612856565b9050919050565b60006020820190508181036000830152612c7a816128bc565b9050919050565b6000602082019050612c9660008301846128fc565b92915050565b6000604051905081810181811067ffffffffffffffff82111715612cc357612cc2613024565b5b8060405250919050565b600067ffffffffffffffff821115612ce857612ce7613024565b5b601f19601f8301169050602081019050919050565b600067ffffffffffffffff821115612d1857612d17613024565b5b601f19601f8301169050602081019050919050565b600081519050919050565b600081519050919050565b600082825260208201905092915050565b600082825260208201905092915050565b600081905092915050565b6000612d7b82612e9f565b9150612d8683612e9f565b9250827fffffffffffffffffffffffffffffffffffffffffffffffffffffffffffffffff03821115612dbb57612dba612f97565b5b828201905092915050565b6000612dd182612e9f565b9150612ddc83612e9f565b925082612dec57612deb612fc6565b5b828204905092915050565b6000612e0282612e9f565b9150612e0d83612e9f565b925082821015612e2057612e1f612f97565b5b828203905092915050565b6000612e3682612e7f565b9050919050565b60008115159050919050565b6000819050919050565b60007fffffffff0000000000000000000000000000000000000000000000000000000082169050919050565b600073ffffffffffffffffffffffffffffffffffffffff82169050919050565b6000819050919050565b82818337600083830152505050565b60005b83811015612ed6578082015181840152602081019050612ebb565b83811115612ee5576000848401525b50505050565b60006002820490506001821680612f0357607f821691505b60208210811415612f1757612f16612ff5565b5b50919050565b6000612f2882612e9f565b91507fffffffffffffffffffffffffffffffffffffffffffffffffffffffffffffffff821415612f5b57612f5a612f97565b5b600182019050919050565b6000612f7182612e9f565b9150612f7c83612e9f565b925082612f8c57612f8b612fc6565b5b828206905092915050565b7f4e487b7100000000000000000000000000000000000000000000000000000000600052601160045260246000fd5b7f4e487b7100000000000000000000000000000000000000000000000000000000600052601260045260246000fd5b7f4e487b7100000000000000000000000000000000000000000000000000000000600052602260045260246000fd5b7f4e487b7100000000000000000000000000000000000000000000000000000000600052604160045260246000fd5b6000601f19601f8301169050919050565b61306d81612e2b565b811461307857600080fd5b50565b61308481612e3d565b811461308f57600080fd5b50565b61309b81612e49565b81146130a657600080fd5b50565b6130b281612e53565b81146130bd57600080fd5b50565b6130c981612e9f565b81146130d457600080fd5b5056fea264697066735822122087d45841a407fc83ebab9355017674cd00bcea55cf5da9ced3be79ed1e4f241a64736f6c63430008000033",
  "linkReferences": {},
  "deployedLinkReferences": {}
}